:100000000C94B2020C94CF020C94CF020C94CF0249
:100010000C94CF020C94CF020C94CF020C94CF021C
:100020000C94CF020C94CF020C94CF020C94CF020C
:100030000C94CF020C94CF020C94CF020C94CF02FC
:100040000C94CF020C94CF020C94CF020C94CF02EC
:100050000C94CF020C94CF020C94CF020C94CF02DC
:100060000C94CF020C94CF0200000000003E5B4FC6
:100070005B3E3E6B4F6B3E1C3E7C3E1C183C7E3C08
:10008000181C577D571C1C5E7F5E1C00183C180016
:10009000FFE7C3E7FF0018241800FFE7DBE7FF30A6
:1000A000483A060E2629792926407F050507407F14
:1000B00005253F5A3CE73C5A7F3E1C1C08081C1C87
:1000C0003E7F14227F22145F5F005F5F06097F017D
:1000D0007F006689956A606060606094A2FFA29468
:1000E00008047E040810207E201008082A1C080836
:1000F0001C2A08081E101010100C1E0C1E0C303884
:100100003E3830060E3E0E06000000000000005F84
:1001100000000007000700147F147F14242A7F2AA0
:100120001223130864623649562050000807030062
:10013000001C2241000041221C002A1C7F1C2A08AE
:10014000083E080800807030000808080808000011
:1001500060600020100804023E5149453E00427F85
:10016000400072494949462141494D331814127FD4
:100170001027454545393C4A494931412111090774
:100180003649494936464949291E000014000000F5
:1001900040340000000814224114141414140041C7
:1001A00022140802015909063E415D594E7C121184
:1001B000127C7F494949363E414141227F414141BC
:1001C0003E7F494949417F090909013E4141517337
:1001D0007F0808087F00417F41002040413F017FA8
:1001E000081422417F404040407F021C027F7F0470
:1001F00008107F3E4141413E7F090909063E4151B9
:10020000215E7F09192946264949493203017F01A8
:10021000033F4040403F1F2040201F3F4038403FA9
:10022000631408146303047804036159494D4300BF
:100230007F4141410204081020004141417F0402F6
:10024000010204404040404000030708002054548D
:1002500078407F284444383844444428384444286B
:100260007F385454541800087E090218A4A49C78BE
:100270007F0804047800447D40002040403D007F1A
:100280001028440000417F40007C047804787C08FA
:100290000404783844444438FC18242418182424CE
:1002A00018FC7C08040408485454542404043F44B3
:1002B000243C4040207C1C2040201C3C4030403CE2
:1002C00044281028444C9090907C4464544C440042
:1002D00008364100000077000000413608000201A6
:1002E0000204023C2623263C1EA1A161123A404092
:1002F000207A38545455592155557941225454780F
:1003000042215554784020545579400C1E527212A7
:100310003955555559395454545939555454580030
:1003200000457C410002457D420001457C407D1234
:1003300011127DF0282528F07C5455450020545496
:100340007C547C0A097F4932494949323A44444441
:100350003A324A4848303A4141217A3A424020787C
:10036000009DA0A07D3D4242423D3D4040403D3C7D
:1003700024FF2424487E4943662B2FFC2F2BFF09A2
:1003800029F620C0887E0903205454794100004496
:100390007D413048484A32384040227A007A0A0A81
:1003A000727D0D19317D2629292F282629292926F4
:1003B00030484D4020380808080808080808382F39
:1003C00010C8ACBA2F102834FA00007B00000814C3
:1003D0002A142222142A1408AA005500AAAA55AAEF
:1003E00055AA000000FF00101010FF00141414FFA5
:1003F000001010FF00FF1010F010F0141414FC0097
:100400001414F700FF0000FF00FF1414F404FC14A0
:100410001417101F10101F101F1414141F00101099
:1004200010F0000000001F101010101F101010100E
:10043000F010000000FF101010101010101010FF2E
:1004400010000000FF140000FF00FF00001F101745
:100450000000FC04F414141710171414F404F4002E
:1004600000FF00F714141414141414F700F71414F4
:1004700014171410101F101F141414F4141010F07B
:1004800010F000001F101F0000001F14000000FCEF
:10049000140000F010F01010FF10FF141414FF14DB
:1004A0001010101F00000000F010FFFFFFFFFFF012
:1004B000F0F0F0F0FFFFFF0000000000FFFF0F0F63
:1004C0000F0F0F3844443844FC4A4A4A347E020233
:1004D0000606027E027E0263554941633844443C6D
:1004E00004407E201E2006027E020299A5E7A599FF
:1004F0001C2A492A1C4C7201724C304A4D4D303036
:1005000048784830BC625A463D3E494949007E0120
:1005100001017E2A2A2A2A2A44445F444440514A3F
:10052000444040444A51400000FF0103E080FF0086
:100530000008086B6B083612362436060F090F06C2
:10054000000018180000001010003040FF010100EA
:100550001F01011E00191D1712003C3C3C3C00000D
:100560000000000011241FBECFEFD8E0DEBFCDBFDA
:1005700011E0A0E0B1E0E2E4FEE202C005900D92DD
:10058000AA36B107D9F721E0AAE6B1E001C01D9271
:10059000A13DB207E1F70E9424110C941F170C949F
:1005A00000008FEF8AB95F9A209A089584B18E6215
:1005B00084B980E58CBD8DB581608DBD299A089583
:1005C0008EBD0DB407FEFDCF089595B19C7F95B902
:1005D0009DE09A95F1F700000E94E002299A0895A3
:1005E000289A92E09A95F1F700C029980E94E002BB
:1005F000299A0895DF92EF92FF920F931F93CF9362
:10060000DF93E82ED92ED62F172F042FF52EC22FC9
:100610008AE20E94E5028D2D0E94F0028E2D0E943A
:10062000F0028F2D0E94F002802F0E94F0028BE2D8
:100630000E94E502812F0E94F0028D2F0E94F0029D
:100640008C2F0E94F0028C2F0E94F0028CE2DF912E
:10065000CF911F910F91FF90EF90DF900C94E502E6
:100660005F9A2FEF81EE94E0215080409040E1F7B7
:1006700000C000005F982FEF81EE94E02150804091
:100680009040E1F700C000005F9A2FEF81EE94E008
:10069000215080409040E1F700C0000008950E9482
:1006A000D1020E94D6020E94300381E00E94E5023E
:1006B0002FEF89E698E1215080409040E1F700C09B
:1006C00000008BEC0E94E50289E30E94F0028CE2BC
:1006D0000E94F00280E00E94F00284E30E94F00297
:1006E00082E00E94F0028FEC0E94E50280E00E940E
:1006F000F00281EC0E94F00280E30E94F00288EE9A
:100700000E94E50285E80E94F00280E00E94F0026B
:1007100088E70E94F0028AEE0E94E50280E00E94D3
:10072000F00280E00E94F0028DEE0E94E50284E675
:100730000E94F00283E00E94F00282E10E94F00237
:1007400081E80E94F00287EF0E94E50280E20E94A9
:10075000F00280EC0E94E50283E20E94F00281EC4C
:100760000E94E50280E10E94F00285EC0E94E50211
:100770008EE30E94F00288E20E94F00287EC0E9461
:10078000E50286E80E94F00286E30E94E50288E422
:100790000E94F0028AE30E94E50285E50E94F002D1
:1007A00081EB0E94E50280E00E94F00288E10E9455
:1007B000F00286EB0E94E50288E00E94F00282E8E7
:1007C0000E94F00287E20E94F00282EF0E94E5029E
:1007D00080E00E94F00286E20E94E50281E00E9431
:1007E000F00280EE0E94E5028FE00E94F00281E3B9
:1007F0000E94F0028BE20E94F0028CE00E94F00264
:100800008EE00E94F00288E00E94F0028EE40E94D6
:10081000F00281EF0E94F00287E30E94F00287E07D
:100820000E94F00280E10E94F00283E00E94F00248
:100830008EE00E94F00289E00E94F00280E00E94B7
:10084000F00281EE0E94E50280E00E94F0028EE05C
:100850000E94F00284E10E94F00283E00E94F00214
:1008600081E10E94F00287E00E94F00281E30E9491
:10087000F00281EC0E94F00288E40E94F00288E01D
:100880000E94F0028FE00E94F0028CE00E94F002D1
:1008900081E30E94F00286E30E94F0028FE00E9452
:1008A000F00281E10E94E5022FEF8DEE92E02150EF
:1008B00080409040E1F700C0000089E20C94E5021E
:1008C000CF93C82F892F0E94F0028C2FCF910C94C8
:1008D000F002EF92FF920F931F93CF93DF937C016F
:1008E0002091120130911301409114015091150192
:1008F000215031094150510970E060E090E080E002
:100900000E94FA02D0E0C0E080911401909115019C
:10091000C817D907A8F0DF91CF911F910F91FF90D1
:10092000EF900895C7010E9460040F5F1F4F8091F0
:1009300012019091130108171907A0F32196E4CF33
:1009400010E000E0F4CFCF93DF93EA01209114018F
:100950003091150182179307A0F420911201309174
:1009600013016217730768F49B012F5F3F4FAC01BF
:100970004F5F5F4F0E94FA02CE01DF91CF910C943E
:100980006004DF91CF9108950F931F93CF93DF936E
:10099000EA01890120911401309115018217930712
:1009A00018F5209112013091130162177307E0F4DA
:1009B00040911201509113019E0121503109260FDF
:1009C000371F2417350730F0C0911201D091130161
:1009D000C61BD70B9B01215031092C0F3D1FAC01C9
:1009E0000E94FA02219728F4DF91CF911F910F9175
:1009F0000895C8010E946004F5CF0F931F93CF9311
:100A0000DF93EA01890120911401309115018217C9
:100A1000930718F5209112013091130162177307A3
:100A2000E0F440911401509115019E0121503109CB
:100A3000280F391F2417350730F0C0911401D091C9
:100A40001501C81BD90BAC01415051094C0F5D1F5A
:100A50009B010E94FA02219728F4DF91CF911F9108
:100A60000F910895C8010E946004F5CFCF92DF92E4
:100A7000EF92FF920F931F93CF93DF937A01E901D7
:100A8000209114013091150182179307C8F5209128
:100A90001201309113016217730790F54091140110
:100AA00050911501970121503109280F391F241742
:100AB000350730F0E0901401F0901501E81AF90ABA
:100AC00040911201509113019E0121503109260FCE
:100AD000371F2417350730F0C0911201D091130150
:100AE000C61BD70B9B01215031092C0F3D1FAC01B8
:100AF000415051094E0D5F1D0E94FA022097A1F44A
:100B0000DF91CF911F910F91FF90EF90DF90CF90E9
:100B10000895C8010E94600481E0C81AD108C11478
:100B2000D104B9F72197EACF6701F9CFCF93C82F46
:100B300086E30E94E502C370C23089F0C33001F140
:100B400088E4C13069F488E20E94F00280E491E018
:100B5000909315018093140180EF90E00BC088E81A
:100B60000E94F00280EF90E09093150180931401B1
:100B700080E491E09093130180931201CF91089546
:100B800088EEE2CF2F923F924F925F926F927F92C8
:100B90008F929F92AF92BF92CF92DF92EF92FF928D
:100BA0000F931F93CF93DF9300D000D0CDB7DEB764
:100BB0006C015B015C834B83890181E090E03C0127
:100BC000641A750ACA019195819591099C01220FB9
:100BD000331F3A832983BA016A0D7B1DA801C60120
:100BE0000E94A304B5018B819C81681B790BA8012D
:100BF000C6010E94A304A801B5018B819C818C0DC4
:100C00009D1D0E94A304A801B501C6012B813C8152
:100C1000821B930B0E94A304F12CE12C8B819C81FD
:100C2000E816F906BCF00F900F900F900F90DF912F
:100C3000CF911F910F91FF90EF90DF90CF90BF90D9
:100C4000AF909F908F907F906F905F904F903F906C
:100C50002F90089577FC0DC08B819C8101979C8318
:100C60008B8329813A812E5F3F4F3A832983620E1D
:100C7000731E3FEFE31AF30AC701880F991F01960D
:100C8000680E791E26014E0C5F1CA8018B809C808B
:100C90008A0C9B1CB401C2010E94A30416012E18E9
:100CA0003F08A801B401C1010E94A304A8014501A5
:100CB0008B819C81881A990AB401C2010E94A30405
:100CC000A801B401C1010E94A30445018E0C9F1C20
:100CD000A801B4014B805C804C0C5D1CC2010E94D9
:100CE000A304A801B40116012B813C81221A330A06
:100CF000C1010E94A30445018E189F08A801B401F8
:100D0000C2010E94A304A801B401C1010E94A3046E
:100D100085CF2F923F924F925F926F927F928F92E8
:100D20009F92AF92BF92CF92DF92EF92FF920F937A
:100D30001F93CF93DF936C015B01EA0181E090E0A8
:100D40004C01841A950A66247724641A750A660C85
:100D5000771CF12CE12C822F8470582E822F827008
:100D6000482E822F8870382E2170222EEC16FD0618
:100D70009CF0DF91CF911F910F91FF90EF90DF904A
:100D8000CF90BF90AF909F908F907F906F905F902B
:100D90004F903F902F90089597FC06C0219782E0D6
:100DA000680E711C860C971C8FEFE81AF80AC701B1
:100DB000880F991F0196880E991E552091F0A80161
:100DC000BE016A0D7B1DC6018E0D9F1D0E94A304EE
:100DD000A801B5016E0D7F1DCE018C0D9D1D0E94D9
:100DE000A304442091F0A801B5016C1B7D0BC60142
:100DF0008E0D9F1D0E94A304A801B5016E197F09E5
:100E0000CE018C0D9D1D0E94A304332091F0A801FA
:100E1000B5016E0D7F1DC6018C1B9D0B0E94A304A6
:100E2000A801BE016A0D7B1DC6018E199F090E9493
:100E3000A304222009F49ACFA801B5016E197F09F5
:100E4000C6018C1B9D0B0E94A304A801B5016C1B5D
:100E50007D0BC6018E199F090E94A30487CF2F9294
:100E60003F924F925F926F927F928F929F92AF923A
:100E7000BF92CF92DF92EF92FF920F931F93CF9387
:100E8000DF9300D000D0CDB7DEB79C838B837B018E
:100E90006A0158018901061B170B17FF03C0119542
:100EA0000195110946018B819C81881A990A97FE48
:100EB00003C0919481949108801691065CF49C2D56
:100EC0008D2D6901292F382F9B818C81FC82EB822B
:100ED000E92EF82E8B819C81C816D9065CF49E2DD4
:100EE0008F2D7901292F382F9B818C81DC82CB8239
:100EF000C92ED82E16018B819C81281A390A290106
:100F00004E185F0857FE03C05194419451083101B7
:100F100037FE03C09FEF691A790A759467948FEFC3
:100F20009FEFE216F30614F481E090E09A83898340
:100F30001BC0A5016B817C81C701801691061CF046
:100F4000B7018B819C810E94A3046418750877FE09
:100F500006C089819A81E80EF91E620C731C8B8190
:100F60009C8101969C838B838B819C81C816D906BA
:100F700004F70F900F900F900F90DF91CF911F917A
:100F80000F91FF90EF90DF90CF90BF90AF909F9028
:100F90008F907F906F905F904F903F902F9008952B
:100FA0000F931F93460F571F4150510989019A0112
:100FB000AC010E942F071F910F9108952F923F922D
:100FC0004F925F926F927F928F929F92AF92BF9259
:100FD000CF92DF92EF92FF920F931F93CF93DF9305
:100FE00000D000D0CDB7DEB75C014B015C834B83F2
:100FF00081E090E02C01441A550A1A0131942194A1
:101000003108220C331CD12CC12C66246394712C22
:10101000422F4170498322702A834B815C81C41620
:10102000D506BCF00F900F900F900F90DF91CF91ED
:101030001F910F91FF90EF90DF90CF90BF90AF90F6
:101040009F908F907F906F905F904F903F902F90E8
:10105000089557FC0AC08B819C8101979C838B83E8
:1010600092E0290E311C420C531CEFEFCE1ADE0A1F
:10107000F2E06F0E711C460C571C4981442301F1AC
:101080004B815C81440F551F4F5F5F4F400F511FD5
:101090009701B4018B819C81681B790BC5018C0D74
:1010A0009D1D0E94D0079701A801460D571DB40150
:1010B0006C197D098B819C818A0D9B1D0E94D00734
:1010C0009A81992309F4A9CF4B815C81440F551F64
:1010D0004F5F5F4F400F511F9701B401EB81FC81BF
:1010E0006E1B7F0BC5018C199D090E94D0079701CB
:1010F000A301400F511FB4016C197D09C501EB819B
:10110000FC818E1B9F0B0E94D00787CFAF92BF92AE
:10111000CF92DF92EF92FF920F931F93CF93DF93C3
:101120006C015B01EA017901440F551F4F5F5F4F6E
:101130006C1B7D0BC6010E94C40410E000E023E09C
:10114000AE01B501C6010E94DE07DF91CF911F916C
:101150000F91FF90EF90DF90CF90BF90AF900895E8
:101160000F931F93480F591F4150510989019B014B
:101170000E942F071F910F910895AF92BF92CF92B7
:10118000DF92EF92FF920F931F93CF93DF93EC01C7
:101190007B015A01690198010E94B008B7016C0DEA
:1011A0007D1D615071099801A501CE010E94B00812
:1011B0009801A601B701CE010E94D007CE018A0D89
:1011C0009B1D9801A601B7010197DF91CF911F9157
:1011D0000F91FF90EF90DF90CF90BF90AF900C9465
:1011E000D007AF92BF92CF92DF92EF92FF920F9310
:1011F0001F93CF93DF936B015901EC017C01E40E47
:10120000F51ECE15DF055CF0DF91CF911F910F9198
:10121000FF90EF90DF90CF90BF90AF90089598012E
:10122000A501B601CE010E94D0072196EACF2F92E8
:101230003F924F925F926F927F928F929F92AF9266
:10124000BF92CF92DF92EF92FF920F931F93CF93B3
:10125000DF9300D000D0CDB7DEB72C013B011A01DF
:1012600069011C830B83000F111F4A01801A910A28
:10127000AB80BC80A40CB51C9701A401C5010E94E1
:10128000B008C3018C0D9D1D9A838983BC016150F8
:1012900071099701A401C5010E94B008C01AD10AC2
:1012A0008B819C81680E791E9701A601B301C20152
:1012B0000E94D007420C531C9701A601B301C20142
:1012C00001970E94D007870121E04B815C81B30127
:1012D000C5010E9489068B819C81481A590A91E0B8
:1012E000491A510822E04B815C81B301C2010E947E
:1012F0008906C980DA808B819C81C81AD90A91E05D
:10130000C91AD10824E04B815C81B601C2010E9458
:10131000890628E04B815C81B601C5010E948906DF
:101320000F900F900F900F90DF91CF911F910F9121
:10133000FF90EF90DF90CF90BF90AF909F908F90F5
:101340007F906F905F904F903F902F9008952F92D5
:101350003F924F925F926F927F928F929F92AF9245
:10136000BF92CF92DF92EF92FF920F931F93CF9392
:10137000DF931C015B012A01E90168014701780143
:10138000EE0CFF1C3801620C731C4E195F098401BE
:10139000C3010E94F108CE19DF092197AC0CBD1CD6
:1013A000420C531CC2018C199D0974018E0121E06D
:1013B000A601B50101970E94DE0722E0A601B50152
:1013C000C3010E94DE07DF91CF911F910F91FF9023
:1013D000EF90DF90CF90BF90AF909F908F907F90D5
:1013E0006F905F904F903F902F9008952F923F9273
:1013F0004F925F926F927F929F92AF92BF92CF92E5
:10140000DF92EF92FF920F931F93CF93DF93CDB7AD
:10141000DEB728970FB6F894DEBF0FBECDBF2C0104
:101420003B015C834B8359011801C901079697FD65
:1014300007969C0193E0359527959A95E1F73A83B5
:101440002983D12CC12C912C10E000E0021513054A
:101450000CF44AC028960FB6F894DEBF0FBECDBF7D
:10146000DF91CF911F910F91FF90EF90DF90CF9080
:10147000BF90AF909F907F906F905F904F903F9004
:101480002F9008958F81988587709927990C892BC3
:1014900071F4EF81F88583E0F595E7958A95E1F79A
:1014A000EC0DFD1D8B819C81E80FF91F949097FE38
:1014B00009C0A7016D817E818F819885840D951D5E
:1014C0000E94A3042F8138852F5F3F4F38872F83D9
:1014D0002F8138852A153B05ACF20F5F1F4F89819C
:1014E0009A81C80ED91EB2CF18861F82C301800F01
:1014F000911F9E838D83ECCF2F923F924F925F92EC
:101500007F928F929F92AF92BF92CF92DF92EF9293
:10151000FF920F931F93CF93DF9300D000D000D0A2
:10152000CDB7DEB72C015C834B83490118018B01D9
:10153000C901079697FD07969C0193E0359527957D
:101540009A95E1F73A832983B12CA12C712CD12CE7
:10155000C12CC214D3040CF44CC026960FB6F894D8
:10156000DEBF0FBECDBFDF91CF911F910F91FF90D6
:10157000EF90DF90CF90BF90AF909F908F907F9033
:101580005F904F903F902F9008958D819E8187703E
:1015900099277694892B71F4ED81FE8183E0F5958E
:1015A000E7958A95E1F7EA0DFB1D8B819C81E80F99
:1015B000F91F749070FE08C0A701B8018D819E814B
:1015C000840D951D0E94A3042D813E812F5F3F4F06
:1015D0003E832D838D819E8188159905B4F29FEFFE
:1015E000C91AD90A0F5F1F4F29813A81A20EB31E73
:1015F000B0CF1E821D82EECF8091C6019091C701AF
:101600009093C1018093C0018091B4019091B50184
:101610009093BF018093BE0108958091C60190917F
:10162000C7019093BB018093BA018091B40190915E
:10163000B5019093C3018093C20108958091C601C2
:101640009091C7019093BD018093BC018091B4013A
:101650009091B5019093CA018093C901089580913A
:10166000C6019091C7019093B7018093B601809114
:10167000B4019091B5019093B9018093B801089598
:101680002F923F924F925F926F927F928F929F9292
:10169000AF92BF92CF92DF92EF92FF920F931F9380
:1016A000CF93DF9300D000D000D00F92CDB7DEB73C
:1016B0005B013D832C8338019F838E8380911401CD
:1016C000909115012E813F812817390708F063C0DA
:1016D00080911201909113016817790708F05BC09F
:1016E000C90136E0E39E800D911D112418161906DC
:1016F0000CF051C0CE2CD12CC60123E0880F991FCD
:101700002A95E1F7860F971F181619060CF043C0AB
:1017100085E0489FA0011124FA01E859FF4FFB839F
:10172000EA832E803F801982F981F12CF53019F07F
:10173000EA81FB81F4902501912C812CF0FE44C0BC
:10174000F1E04C815D810C811D81EF1248C0B50133
:10175000680D791DC1010E94A304F6948FEF881AC9
:10176000980A4C0C5D1C98E08916910439F7EE81BB
:10177000FF81EC0DFD1DFF83EE83FFEF2F1A3F0A63
:101780002A813B812F5F3F4F3B832A8339813F5F13
:101790003983363049F627960FB6F894DEBF0FBE70
:1017A000CDBFDF91CF911F910F91FF90EF90DF9010
:1017B000CF90BF90AF909F908F907F906F905F90F1
:1017C0004F903F902F9008952C813D81261537052D
:1017D00021F231E08301E31202C0A301B8CF9601E8
:1017E000A601B2018E819F810E943605B6CFEF928D
:1017F0000F931F93482FE090C8010091B201109100
:10180000B3012091C4013091C5016091B401709180
:10181000B5018091C6019091C7010E94400B2091B3
:10182000C8018091C6019091C70136E0239F800DC9
:10183000911D11249093C7018093C6011F910F91B0
:10184000EF9008959093C7018093C6017093B501FE
:101850006093B40108959093C5018093C40170937F
:10186000B3016093B2010895893028F4811101C059
:1018700081E08093C80108958A30A9F48091C8015D
:101880002091B4013091B50148E0849FC00111243A
:10189000820F931F9093B5018093B4011092C701FA
:1018A0001092C60108958D3011F00C94F70B089535
:1018B0000E943C0C81E090E008958F929F92AF923D
:1018C000BF92DF92EF92FF920F931F93CF93DF931C
:1018D00086E191E09093CE018093CD0104E010E089
:1018E0001093C7010093C6011093B5010093B40192
:1018F0008FE99FE00197F1F700C0000080EE97E0CC
:101900009093C5018093C4011092B3011092B2016B
:101910008FE99FE00197F1F700C00000C2E0C0939B
:10192000C8018FE99FE00197F1F700C000008AE24B
:1019300091E09F938F930E941B148FE99FE0019782
:10194000F1F700C0000080E098EF9093C50180930C
:10195000C4011092B3011092B2018FE99FE0019788
:10196000F1F700C00000C093C8018FE99FE0019724
:10197000F1F700C0000082E391E09F938F930E94F3
:101980001B148FE99FE00197F1F700C0000010934E
:10199000C7010093C60188E2A82EB12CB092B50110
:1019A000A092B4018FE99FE00197F1F700C0000019
:1019B0008FEF97E09093C5018093C4011092B3011B
:1019C0001092B2018FE99FE00197F1F700C000008B
:1019D000D4E0D093C8018FE99FE00197F1F700C0F0
:1019E000000086E50E94F70B8FE99FE00197F1F771
:1019F00000C000008091B4019091B50106969093CB
:101A0000B5018093B401C3E0C093C8018FE99FE0A2
:101A10000197F1F700C0000083E491E00E943114C7
:101A20008FE99FE00197F1F700C000008091B401B9
:101A30009091B5010C969093B5018093B4010E94EA
:101A4000FC0A87E491E09F938F930E941B148FE917
:101A50009FE00197F1F700C000001093C7010093C9
:101A6000C60198E7892E912C9092B5018092B4011D
:101A70008FE99FE00197F1F700C00000D093C80103
:101A80008FE99FE00197F1F700C0000086E50E9412
:101A9000F70B8FE99FE00197F1F700C000008091FC
:101AA000B4019091B50106969093B5018093B4016D
:101AB000C093C8018FE99FE00197F1F700C00000D3
:101AC0008EE491E00E9431148FE99FE00197F1F7D5
:101AD00000C000000E940D0B25E0D22ED092C8015C
:101AE00006E511E01F930F930E941B148FE99FE0FE
:101AF0000197F1F700C0000034EAE32EF12CF092D8
:101B0000C701E092C601B092B501A092B4018FE97D
:101B10009FE00197F1F700C0000080EE9FEF9093E7
:101B2000C5018093C4011092B3011092B2018FE9F4
:101B30009FE00197F1F700C00000D093C8018FE942
:101B40009FE00197F1F700C0000089E40E94F70BC5
:101B50008FE99FE00197F1F700C000008091B40188
:101B60009091B50106969093B5018093B401C0930E
:101B7000C8018FE99FE00197F1F700C0000083E4FE
:101B800091E09F938F930E941B148FE99FE0019730
:101B9000F1F700C00000F092C701E092C601809109
:101BA000B4019091B50184969093B5018093B401EE
:101BB0000E941E0BC093C8018CE591E09F938F9308
:101BC0000E941B148FE99FE00197F1F700C000000D
:101BD000F092C701E092C6019092B5018092B401E3
:101BE0008FE99FE00197F1F700C00000D093C80192
:101BF0008FE99FE00197F1F700C0000089E40E949F
:101C0000F70B8FE99FE00197F1F700C0000080918A
:101C1000B4019091B50106969093B5018093B401FB
:101C2000C093C8018FE99FE00197F1F700C0000061
:101C300083E691E09F938F930E941B148FE99FE0AE
:101C40000197F1F700C00000F092C701E092C601D1
:101C50000E942F0B8091B4019091B501C096909392
:101C6000B5018093B401D092C8011F930F930E94D5
:101C70001B149FEF23ED80E3915020408040E1F75B
:101C800000C000008DB79EB740960FB6F8949EBF77
:101C90000FBE8DBFDF91CF911F910F91FF90EF90FD
:101CA000DF90BF90AF909F908F9008959091C0006B
:101CB00095FFFCCF8093C6000895CF93DF93EC018E
:101CC0008991811103C0DF91CF9108950E94560E32
:101CD000F7CFCF93DF93CDB7DEB72A970FB6F8943F
:101CE000DEBF0FBECDBF4AE0BE016F5F7F4F90E009
:101CF0000E94F613CE0101960E945D0E2A960FB641
:101D0000F894DEBF0FBECDBFDF91CF910895CF9382
:101D1000DF93CDB7DEB72A970FB6F894DEBF0FBEBC
:101D2000CDBF4AE0BE016F5F7F4F0E940114CE011C
:101D300001960E945D0E2A960FB6F894DEBF0FBE84
:101D4000CDBFDF91CF9108951092640082E080931F
:101D5000B9008CE08093B80084E08093BC000895C3
:101D600084EA8093BC008091BC0087FFFCCF08957B
:101D700084E98093BC0008958093BB0084E880933D
:101D8000BC008091BC0087FFFCCF089584EC809359
:101D9000BC008091BC0087FFFCCF8091BB00089500
:101DA00084E88093BC008091BC0087FFFCCF8091C9
:101DB000BB0008958091B900887F0895982F862FE1
:101DC00097FF04C090589195819591090895CF93FC
:101DD000C82F0E94B00E0E94DA0E883031F58EEEC8
:101DE0000E94BC0E0E94DA0E883109F58C2F0E94E9
:101DF000BC0E0E94DA0EC3E08832A1F40E94B00E3D
:101E00000E94DA0EC4E0803169F48FEE0E94BC0EAD
:101E10000E94DA0EC5E0803429F40E94D00EC82F4B
:101E20000E94B80E8C2FCF910895CBE7FBCFC2E074
:101E3000F9CFCF93DF93D82FC62F0E94B00E0E9408
:101E4000DA0E8830D9F48EEE0E94BC0E0E94DA0EB3
:101E50008831B1F48D2F0E94BC0E0E94DA0E8832B8
:101E600089F48C2F0E94BC0E0E94DA0E883261F435
:101E70000E94B80E80E0DF91CF9108958BE0FBCFF8
:101E800086E1F9CF81E2F7CF8CE2F5CFCF93DF93F4
:101E900060E087E00E94190F2FEF30E782E02150C9
:101EA00030408040E1F700C0000067E088E00E9419
:101EB000190F9FEF20E732E0915020403040E1F7CA
:101EC00000C0000067E088E00E94190F8FE19EE4E7
:101ED0000197F1F700C0000080E10E94E70EC82FD3
:101EE0009FEF20E732E0915020403040E1F700C002
:101EF000000081E10E94E70ED82F8FEF90E722E0EB
:101F0000815090402040E1F700C0000082E10E9433
:101F1000E70E3FEF90E722E0315090402040E1F79C
:101F200000C0000090E1C99F900111249D2F92955F
:101F30009F70292B30938B0120938A01DF709D2F96
:101F40009093890180938801C901DF91CF91089511
:101F5000CF93DF9383E00E94E70ED82F2FEF30E777
:101F600082E0215030408040E1F700C0000084E072
:101F70000E94E70EC82F9FEF20E732E091502040EB
:101F80003040E1F700C0000085E00E94E70E282FF6
:101F90008FEF90E732E0815090403040E1F700C091
:101FA0000000BE0190E080E0982F872F762F6627F3
:101FB000622BDF91CF9108950F931F93CF93DF93FF
:101FC00083E00E94E70ED82F84E00E94E70EC82F1E
:101FD00085E00E94E70E4C2F50E070E060E0762F25
:101FE000652F542F44276D2B8A019B01082BC901B3
:101FF000B80187FD9A95DF91CF911F910F910895B8
:102000004F925F926F927F928F929F92AF92BF9208
:10201000CF92DF92EF92FF920F931F9349015A01E3
:1020200067010E94A2122B013C01C801B6010E9467
:10203000A2126B017C0120E030E040EC59E4C301C6
:10204000B2010E94F8119B01AC01C701B6010E94C8
:102050002E136B017C01C501B4010E94A212A701DD
:1020600096010E948C110E946A121F910F91FF909D
:10207000EF90DF90CF90BF90AF909F908F907F9028
:102080006F905F904F9008952FEF80E792E021507E
:1020900080409040E1F700C0000061E086E00E94CF
:1020A000190F2FEF80E792E0215080409040E1F738
:1020B00000C0000060E887E00E94190F2FEF80E762
:1020C00092E0215080409040E1F700C0000067E0BE
:1020D00088E00E94190F2FEF80E792E021508040A6
:1020E0009040E1F700C000000E94A80F0E94A212D9
:1020F00020E030E040E056E30E942E130E946A1276
:10210000089562E088E00E94190F2FEF80E792E0C7
:10211000215080409040E1F700C0000080E00E9424
:10212000E70E2FEF80E792E0215080409040E1F7EA
:1021300000C0000081E00E94E70E2FEF80E792E0F0
:10214000215080409040E1F700C0000082E00E94F2
:10215000E70E2FEF80E792E0215080409040E1F7BA
:1021600000C0000060E070E0CB010895CF92DF92E4
:10217000EF92FF92CF93DF9383E00E94E70EF82E59
:102180008FE19EE40197F1F700C0000084E00E9417
:10219000E70EC82F8FE19EE40197F1F700C0000021
:1021A00085E00E94E70E282F8FE19EE40197F1F76A
:1021B00000C00000DF2DBE0190E080E0982F872F47
:1021C000762F6627622B6115710520E8820791053D
:1021D000B8F18058910990958095709561957F4FE1
:1021E0008F4F9F4FE0908801F090890120E030E010
:1021F00048E750E00E949B13D7010E94BA130E9447
:10220000A2126B017C0160918A0170918B0190E0B8
:1022100080E00E94A01220E030E040E05FE30E94F6
:102220002E139B01AC01C701B6010E948C110E94C4
:102230006A12DF91CF91FF90EF90DF90CF900895D9
:1022400060E070E0CB01CECF80E091E09093CE01D2
:102250008093CD010E944F0390E080E00E946904CA
:102260002FEF89E698E1215080409040E1F700C0CF
:10227000000083E00E9496058FE99FE00197F1F747
:1022800000C0000080EF90E09093AB018093AA0122
:1022900010929D0110929C011092B1011092B00118
:1022A0008BE790E09093A9018093A80181E090E0F2
:1022B00090939F0180939E0170E060E080E098EF32
:1022C0000E942B0C70E060E090E080E00E94220C05
:1022D00083E00E94340C0E94A40E00E319E3C4E2E0
:1022E000D1E070E060E090E080E00E94220C0F936B
:1022F0001F93DF93CF930E941B148FEF94E32CE086
:10230000815090402040E1F700C000000F900F90F6
:102310000F900F90E6CF5058BB27AA270E94A31119
:102320000C94F4120E94E61238F00E94ED1220F094
:1023300039F49F3F19F426F40C94E3120EF4E0955F
:10234000E7FB0C94DD12E92F0E94051358F3BA172E
:10235000620773078407950720F079F4A6F50C94BB
:1023600027130EF4E0950B2EBA2FA02D0B01B90107
:1023700090010C01CA01A0011124FF27591B99F0FB
:10238000593F50F4503E68F11A16F040A22F232F07
:10239000342F4427585FF3CF469537952795A79557
:1023A000F0405395C9F77EF41F16BA0B620B730BFE
:1023B000840BBAF09150A1F0FF0FBB1F661F771F6F
:1023C000881FC2F70EC0BA0F621F731F841F48F424
:1023D000879577956795B795F7959E3F08F0B0CFAD
:1023E0009395880F08F09927EE0F97958795089594
:1023F0000E940C120C94F4120E94ED1258F00E94EC
:10240000E61240F029F45F3F29F00C94DD125111DF
:102410000C9428130C94E3120E94051368F399237B
:10242000B1F3552391F3951B550BBB27AA276217D0
:102430007307840738F09F5F5F4F220F331F441FDD
:10244000AA1FA9F335D00E2E3AF0E0E832D0915011
:102450005040E695001CCAF72BD0FE2F29D0660FFE
:10246000771F881FBB1F261737074807AB07B0E841
:1024700009F0BB0B802DBF01FF2793585F4F3AF047
:102480009E3F510578F00C94DD120C9428135F3FA9
:10249000E4F3983ED4F3869577956795B795F795CD
:1024A0009F5FC9F7880F911D9695879597F90895B5
:1024B000E1E0660F771F881FBB1F62177307840751
:1024C000BA0720F0621B730B840BBA0BEE1F88F760
:1024D000E09508950E9471126894B1110C9428132C
:1024E00008950E940D1388F09F5798F0B92F9927EF
:1024F000B751B0F0E1F0660F771F881F991F1AF0EF
:10250000BA95C9F714C0B13091F00E942713B1E019
:1025100008950C942713672F782F8827B85F39F018
:10252000B93FCCF3869577956795B395D9F73EF487
:1025300090958095709561957F4F8F4F9F4F08952F
:10254000E89409C097FB3EF490958095709561954D
:102550007F4F8F4F9F4F9923A9F0F92F96E9BB2703
:102560009395F695879577956795B795F111F8CF7F
:10257000FAF4BB0F11F460FF1BC06F5F7F4F8F4FEA
:102580009F4F16C0882311F096E911C0772321F0E0
:102590009EE8872F762F05C0662371F096E8862F78
:1025A00070E060E02AF09A95660F771F881FDAF7CF
:1025B000880F9695879597F9089597F99F6780E812
:1025C00070E060E008959FEF80EC089500240A9485
:1025D0001616170618060906089500240A941216FE
:1025E0001306140605060895092E0394000C11F431
:1025F000882352F0BB0F40F4BF2B11F460FF04C0DE
:102600006F5F7F4F8F4F9F4F089557FD9058440F36
:10261000551F59F05F3F71F04795880F97FB991F41
:1026200061F09F3F79F087950895121613061406FE
:10263000551FF2CF4695F1DF08C01616170618068B
:10264000991FF1CF86957105610508940895E89466
:10265000BB2766277727CB0197F908950E9441137E
:102660000C94F4120E94E61238F00E94ED1220F051
:10267000952311F00C94DD120C94E31211240C94A8
:1026800028130E94051370F3959FC1F3950F50E036
:10269000551F629FF001729FBB27F00DB11D639F14
:1026A000AA27F00DB11DAA1F649F6627B00DA11DBA
:1026B000661F829F2227B00DA11D621F739FB00D60
:1026C000A11D621F839FA00D611D221F749F3327D0
:1026D000A00D611D231F849F600D211D822F762F69
:1026E0006A2F11249F5750409AF0F1F088234AF046
:1026F000EE0FFF1FBB1F661F771F881F91505040B2
:10270000A9F79E3F510580F00C94DD120C9428131C
:102710005F3FE4F3983ED4F3869577956795B79538
:10272000F795E7959F5FC1F7FE2B880F911D969552
:10273000879597F90895052E97FB1EF400940E9443
:10274000B21357FD07D00E94C51307FC03D04EF407
:102750000C94B21350954095309521953F4F4F4FB3
:102760005F4F089590958095709561957F4F8F4F3D
:102770009F4F08950E94E713A59F900DB49F900D61
:10278000A49F800D911D11240895A1E21A2EAA1B69
:10279000BB1BFD010DC0AA1FBB1FEE1FFF1FA21711
:1027A000B307E407F50720F0A21BB30BE40BF50B0E
:1027B000661F771F881F991F1A9469F76095709597
:1027C000809590959B01AC01BD01CF010895A29F1A
:1027D000B001B39FC001A39F700D811D1124911DF5
:1027E000B29F700D811D1124911D0895BB274A30A1
:1027F00031F4992322F4BDE2909581959F4F0C947A
:102800000214BB27FB015527AA27880F991FAA1F6F
:10281000A41710F0A41B83955051B9F7A05DAA33FB
:1028200008F0A95DA193009779F7B111B1931192C6
:10283000CB010C944A16A0E0B0E0E1E2F4E10C9484
:10284000F816AE014B5F5F4FFA0161917191AF01D4
:102850008091CD019091CE010E946114E2E00C9430
:1028600014170F931F93CF93DF93E091CD01F09155
:10287000CE01238121FF1BC08C01D0E0C0E0F80114
:1028800081918F016091CD017091CE01DB0118968D
:10289000ED91FC911997882331F00995892B79F3F3
:1028A000DFEFCFEFECCF8AE00995892B19F08FEF9E
:1028B0009FEF02C08D2F9C2FDF91CF911F910F9121
:1028C0000895ACE0B0E0E7E6F4E10C94E8166C01A2
:1028D0007B018A01FC0117821682838181FFBEC1C0
:1028E000CE0101964C01F6019381F70193FD85918C
:1028F00093FF81917F01882309F4ACC1853239F4BB
:1029000093FD859193FF81917F01853229F4B60172
:1029100090E00E945A16E7CF512C312C20E0203253
:10292000A0F48B3269F030F4803259F0833269F4CC
:1029300020612CC08D3239F0803339F4216026C0FB
:102940002260246023C0286021C027FD27C030ED0D
:10295000380F3A3078F426FF06C0FAE05F9E300D5B
:102960001124532E13C08AE0389E300D1124332ECB
:1029700020620CC08E3221F426FD6CC1206406C09A
:102980008C3611F4206802C0883641F4F70193FDBB
:10299000859193FF81917F018111C1CF982F9F7DF8
:1029A0009554933028F40C5F1F4F9FE399830DC01B
:1029B000833631F0833771F0833509F05BC022C074
:1029C000F801808189830E5F1F4F44244394512C6A
:1029D000540115C03801F2E06F0E711CF801A0809F
:1029E000B18026FF03C0652D70E002C06FEF7FEF5E
:1029F000C5012C870E943F162C0183012C852F775F
:102A0000222E17C03801F2E06F0E711CF801A08071
:102A1000B18026FF03C0652D70E002C06FEF7FEF2D
:102A2000C5012C870E9434162C012C852068222E8B
:102A3000830123FC1BC0832D90E048165906B0F497
:102A4000B60180E290E00E945A163A94F4CFF50164
:102A500027FC859127FE81915F01B60190E00E94DD
:102A60005A1631103A94F1E04F1A510841145104AA
:102A700071F7E6C0843611F0893639F5F80127FF81
:102A800007C060817181828193810C5F1F4F08C0F4
:102A900060817181072E000C880B990B0E5F1F4F10
:102AA0002F76722E97FF09C090958095709561954D
:102AB0007F4F8F4F9F4F2068722E2AE030E0A40195
:102AC0000E948A16A82EA81844C0853729F42F7EA4
:102AD000B22E2AE030E025C0F22FF97FBF2E8F36CC
:102AE000C1F018F4883579F0B5C0803719F088370F
:102AF00021F0B0C02F2F2061B22EB4FE0DC08B2D5F
:102B00008460B82E09C024FF0AC09F2F9660B92E9A
:102B100006C028E030E005C020E130E002C020E13E
:102B200032E0F801B7FE07C0608171818281938134
:102B30000C5F1F4F06C06081718180E090E00E5FE6
:102B40001F4FA4010E948A16A82EA818FB2DFF77FC
:102B50007F2E76FE0BC0372D3E7FA51450F474FEF9
:102B60000AC072FC08C0372D3E7E05C0BA2C372D36
:102B700003C0BA2C01C0B52C34FF0DC0FE01EA0D14
:102B8000F11D8081803311F4397E09C032FF06C007
:102B9000B394B39404C0832F867809F0B39433FDC3
:102BA00013C030FF06C0B31498F43A0C532C5B18D2
:102BB00010C0B31470F4B60180E290E03C870E942C
:102BC0005A16B3943C85F5CFB31418F43B1802C0E1
:102BD0005A2C312C34FF12C0B60180E390E03C87C0
:102BE0000E945A163C8532FF17C031FD03C088E7AA
:102BF00090E002C088E590E0B6010CC0832F867893
:102C000059F031FF02C08BE201C080E237FD8DE256
:102C1000B60190E00E945A16A51438F4B60180E37C
:102C200090E00E945A165A94F7CFAA94F401EA0D44
:102C3000F11D8081B60190E00E945A16A110F5CFD7
:102C4000332009F450CEB60180E290E00E945A167B
:102C50003A94F6CFF6018681978102C08FEF9FEFFD
:102C60002C96E2E10C940417FC0105906150704031
:102C70000110D8F7809590958E0F9F1F0895FC0145
:102C80006150704001900110D8F7809590958E0F9B
:102C90009F1F0895DC01FC01672F71917723E1F7F5
:102CA000329704C07C916D9370836291AE17BF0719
:102CB000C8F308950F931F93CF93DF93182F092F15
:102CC000EB018B8181FD03C08FEF9FEF1EC082FF60
:102CD0000FC02E813F818C819D812817390774F4A4
:102CE000E881F981CF01019699838883108306C01A
:102CF000E885F985812F0995892B31F78E819F8190
:102D000001969F838E83812F902FDF91CF911F910A
:102D10000F910895FA01AA27283051F1203181F14D
:102D2000E8946F936E7F6E5F7F4F8F4F9F4FAF4FD3
:102D3000B1E03ED0B4E03CD0670F781F891F9A1FE6
:102D4000A11D680F791F8A1F911DA11D6A0F711D9A
:102D5000811D911DA11D20D009F468943F912AE0A6
:102D6000269F11243019305D3193DEF6CF0108958E
:102D7000462F4770405D4193B3E00FD0C9F7F6CFBF
:102D8000462F4F70405D4A3318F0495D31FD405287
:102D9000419302D0A9F7EACFB4E0A695979587951D
:102DA00077956795BA95C9F70097610571050895FC
:102DB0009B01AC010A2E06945795479537952795A8
:102DC000BA95C9F7620F731F841F951FA01D089540
:102DD0002F923F924F925F926F927F928F929F922B
:102DE000AF92BF92CF92DF92EF92FF920F931F9319
:102DF000CF93DF93CDB7DEB7CA1BDB0B0FB6F894CA
:102E0000DEBF0FBECDBF09942A88398848885F8409
:102E10006E847D848C849B84AA84B984C884DF807A
:102E2000EE80FD800C811B81AA81B981CE0FD11D5E
:102E30000FB6F894DEBF0FBECDBFED010895F89434
:022E4000FFCFC2
:102E42000000000200000000580C00000000F0002A
:102E52004001F00040010000000200000000580C98
:102E6200000000004232202564006D6F6465202D51
:102E72002000636F6E7374616E7420766F6C746180
:102E82006765007365740030302E30307600616300
:102E92007475616C0A0030302E30300030302E30C4
:0A2EA20030610061637475616C001B
:00000001FF
