:100000000C9452120C946F120C946F120C946F1289
:100010000C946F120C946F120C946F120C946F125C
:100020000C946F120C946F120C946F120C946F124C
:100030000C946F120C946F120C946F120C946F123C
:100040000C946F120C946F120C946F120C946F122C
:100050000C946F120C946F120C946F120C946F121C
:100060000C946F120C946F12FFFFFFFFFFFFFFFF56
:10007000FFFFFFFFFFFFFFFFFFFFFFFFFFFFFFFF90
:10008000FFFFFFFFFFFFFFFFFFFFFFFFFFFFFFFF80
:10009000FFFFFFFFFFFFFFFFFFFFFFFFFFFFFFFF70
:1000A000FFFFFFFFFFFFFFFFFFFFFFFFFFFFFFFF60
:1005C000FFFFFFFFFFFFFFCFFFFFFFFFFFFFFFFF6B
:1005D000FFFFFFFFFFFFFFFFFFFFFFFFFFFFFFFF2B
:1005E000FFFFFFFFFFFFFFFFFFFFFFFFFFFFFF0F0B
:1005F000FFFFFFFFFFFFFFFFFFFFFFFFFFFFFFFF0B
:10060000FFFFFFFFFFFFFFFFFFFFFFFFFFFFFFFFFA
:10061000FFFFFFFFFFFFFF1FF6FFFFFFFFFFFFFFD3
:10062000FFFFFFFFFFFFFFFFFFFFFFFFFFFFFFFFDA
:10063000FFFFFFFFFFFFFFFFFFFFFFFFFFFFFF2F9A
:10064000F8FFFFFFFFFFFFFFFFFFFFFFFFFFFFFFC1
:10065000FFFFFFFFFFFFFFFFFFFFFFFFFFFFFFFFAA
:10066000FFFFFFFFFFFFFF1FF0FFFFFFFFFFFFFF89
:10067000FFFFFFFFFFFFFFFFFFFFFFFFFFFFFFFF8A
:10068000FFFFFFFFFFFFFFFFFFFFFFFFFFFFFF3F3A
:10069000F9FFFFFFFFFFFFFFFFFFFFFFFFFFFFFF70
:1006A000FFFFFFFFFFFFFFFFFFFFFFFFFFFFFFFF5A
:1006B000FFFFFFFFFFFFFF7FF8FFFFFFFFFFFFFFD1
:1006C000FFFFFFFFFFFFFFFFFFFFFFFFFFFFFFFF3A
:1006D000FFFFFFFFFFFFFFFFFFFFFFFFFFFFFFFF2A
:1006E000F9FFFFFFFFFFFFFFFFFFFFFFFFFFFFFF20
:1006F000FFFFFFFFFFFFFFFFFFFFFFFFFFFFFFFF0A
:10070000FFFFFFFFFFFFFFFFFFFFFFFFFFFFFFFFF9
:10071000FFFFFFFFFFFFFFFFFFFFFFFFFFFFFFFFE9
:10072000FFFFFFFFFFFFFFFFFFFFFFFFFFFFFFFFD9
:100730007FFEFFFFFFFFFFFFFFFFFFFFFFFFFFFF4A
:10074000FFFFFFFFFFFFFFFFFFFFFFFFFFFFFFFFB9
:10075000FFFFFFFFFFFFFFFF67FCFFFFFFFFFFFF44
:10076000FFFFFFFFFFFFFFFFFFFFFFFFFFFFFFFF99
:10077000FFFFFFFFFFFFFFFFFFFFFFFFFFFFFFFF89
:100780003FF8FFFFFFFFFFFFFFD7FFFFFFFFFFFF68
:10079000FFFFFFFFFFFFFFFFFFFFFFFFFFFFFFFF69
:1007A000FFFFFFFFFFFFFFFF0FF0FFFFFFFFFFFF58
:1007B000FFFAFFFFFFFFFFFFFFFFFFFFFFFFFFFF4E
:1007C000FFFFFFFFFFFFFFFFFFFFFFFFFFFFFFFF39
:1007D0000FE0FFFFFFFFFFFFFFFFFFFFFFFFFFFF38
:1007E000FFFFFFFFFFFFFFFFFFFFFFFFFFFFFFFF19
:1007F000FFFFFFFFFFFFFFFF3FC0FFFFFFFFFFFF08
:10080000FFFFFFFFFFFFFFFFFFFFFFFFFFFFFFFFF8
:10081000FFFFFFFFFFFFFFFFFFFFFFFFFFFFFFFFE8
:10082000FF80FFFF3FFEFFFF7FFFFFFFFFFFFFFF98
:10083000FFFFFFFFFFFFFFFFFFFFFFFFFFFFFFFFC8
:10084000FFFFFFFFFFFFFFFFFF01FFFF11F8FFFFAB
:10085000BFFFFFFFFFFFFFFFFFFFFFFFFFFFFFFFE8
:10086000FFFFFFFFFFFFFFFFFFFFFFFFFFFFFFFF98
:10087000FF03FEFF00E0FFFFEFFFFFFFFFFFFFFFB3
:10088000FFFFFFFFFFFFFFFFFFFFFFFFFFFFFFFF78
:10089000FFFFFFFFFFFFFFFFFF07FCFF00C0FFFFA1
:1008A000E3FFFFFFFFFFFFFFFFFFFFFFFFFFFFFF74
:1008B000FFFFFFFFFFFFFFFFFFFFFFFFFFFFFFFF48
:1008C000FF07F8FF00C0FFFFE1FFFFFFFFFFFFFF93
:1008D000FFFFFFFFFFFFFFFFFFFFFFFFFFFFFFFF28
:1008E000FFFFFFFFFFFFFFFFFF0FF0FF00C0FFFF55
:1008F000C0FFFFFFFFFFFFFFFFFFFFFFFFFFFFFF47
:10090000FFFFFFFFFFFFFFFFFFFFFFFFFFFFFFFFF7
:10091000FF1FC0FF11C0FF7F80FFFFFFFFFFFFFF32
:10092000FFFFFFFFFFFFFFFFFFFFFFFFFFFFFFFFD7
:10093000FFFFFFFFFFFFFFFFFF3F00F763E0FF3F09
:10094000F8FFFFFFFFFFFFFFFFFFFFFFFFFFFFFFBE
:10095000FFFFFFFFFFFFFFFFFFFFFFFFFFFFFFFFA7
:10096000FF7F0080C3C0FF1FFCFFFFFFFFFFFFFFF3
:10097000FFFFFFFFFFFFFFFFFFFFFFFFFFFFFFFF87
:10098000FFFFFFFFFFFFFFFFFFFF000087C3FF0F19
:10099000FEFFFFFFFFFFFFFFFFFFFFFFFFFFFFFF68
:1009A000FFFFFFFFFFFFFFFFFFFFFFFFFFFFFFFF57
:1009B000FFFF03000E8EFF81FFFFFFFFFFFFFFFF22
:1009C000FFFFFFFFFFFFFFFFFFFFFFFFFFFFFFFF37
:1009D000FFFFFFFFFFFFFFFFFFFF07001E883F80B5
:1009E000FFFFFFFFFFFFFFFFFFFFFFFFFFFFFFFF17
:1009F000FFFFFFFFFFFFFFFFFFFFFFFFFFFFFFFF07
:100A0000FFFF0F003C802FC0FFFFFFFFFFFFFFFF36
:100A1000FFFFFFFFFFFFFFFFFFFFFFFFFFFFFFFFE6
:100A2000FFFFFFFFFFFFFFFFFFFF1F00FF0038E09A
:100A3000FFFFFFFFFFFFFFFFFFFFFFFFFFFFFFFFC6
:100A4000FFFFFFFFFFFFFFFFFFFFFFFFFFFFFFFFB6
:100A5000FFFF7F80FF0178E4FFFFFFFFFFFFFFFF45
:100A6000FFFFFFFFFFFFFFFFFFFFFFFFFFFFFFFF96
:100A7000FFFFFFFFFFFFFFFFFFFF7F00FB3FF0FFD8
:100A8000FFFFFFFFFFFFFFFFFFFFFFFFFFFFFFFF76
:100A9000FFFFFFFFFFFFFFFFFFFFFFFFFFFFFFFF66
:100AA000FFFF7F00FE3FF4FFFFFFFFFFFFFFFFFFA1
:100AB000FFFFFFFFFFFFFFFFFFFFFFFFFFFFFFFF46
:100AC000FFFFFFFFFFFFFFFFFFFFFF00F2BFFFFF82
:100AD000FFFFFFFFFFFFFFFFFFFFFFFFFFFFFFFF26
:100AE000FFFFFFFFFFFFFFFFFFFFFFFFFFFFFFFF16
:100AF000FFFF7F00F23FFFFFFFFFFFFFFFFFFFFF52
:100B0000FFFFFFFFFFFFFFFFFFFFFFFFFFFFFFFFF5
:100B1000FFFFFFFFFFFFFFFFFFFF7F00F63DFFFF2F
:100B2000FFFFFFFFFFFFFFFFFFFFFFFFFFFFFFFFD5
:100B3000FFFFFFFFFFFFFFFFFFFFFFFFFFFFFFFFC5
:100B4000FFFF3F00E301FFFFFFFFFFFFFFFFFFFF8E
:100B5000FFFFFFFFFFFFFFFFFFFFFFFFFFFFFFFFA5
:100B6000FFFFFFFFFFFFFFFFFFFF3F00E303FEFF6D
:100B7000FFFFFFFFFFFFFFFFFFFFFFFFFFFFFFFF85
:100B8000FFFFFFFFFFFFFFFFFFFFFFFFFFFFFFFF75
:100B9000FFFF3F80C707FEFFFFFFFFFFFFFFFFFFD5
:100BA000FFFFFFFFFFFFFFFFFFFFFFFFFFFFFFFF55
:100BB000FFFFFFFFFFFFFFFFFFFF1F80C707FEFFD5
:100BC000FFFFFFFFFFFFFFFFFFFFFFFFFFFFFFFF35
:100BD000FFFFFFFFFFFFFFFFFFFFFFFFFFFFFFFF25
:100BE000FFFF1FC0C70FFCFFFFFFFFFFFFFFFFFF5F
:100BF000FFFFFFFFFFFFFFFFFFFFFFFFFFFFFFFF05
:100C0000FFFFFFFFFFFFFFFFFFFF0FC0C71FFCFF3E
:100C1000FFFFFFFFFFFFFFFFFFFFFFFFFFFFFFFFE4
:100C2000FFFFFFFFFFFFFFFFFFFFFFFFFFFFFFFFD4
:100C3000FFFF0FE0C73FFCFFFFFFFFFFFFFFFFFFCE
:100C4000FFFFFFFFFFFFFFFFFFFFFFFFFFFFFFFFB4
:100C5000FFFFFFFFFFFFFFFFFFFF07F08F3FFCFFDE
:100C6000FFFFFFFFFFFFFFFFFFFFFFFFFFFFFFFF94
:100C7000FFFFFFFFFFFFFFFFFFFFFFFFFFFFFFFF84
:100C8000FFFF07F08F7FF8FFFFFFFFFFFFFFFFFF72
:100C9000FFFFFFFFFFFFFFFFFFFFFFFFFFFFFFFF64
:100CA000FFFFFFFFFFFFFFFFFFFF03F88FC1F8FF0C
:100CB000FFFFFFFFFFFFFFFFFFFFFFFFFFFFFFFF44
:100CC000FFFFFFFFFFFFFFFFFFFFFFFFFFFFFFFF34
:100CD000FFFF03FC8F01F8FFFFFFFFFFFFFFFFFF98
:100CE000FFFFFFFFFFFFFFFFFFFFFFFFFFFFFFFF14
:100CF000FFFFFFFFFFFFFFFFFFFF01FE0F00F8FFF9
:100D0000FFFFFFFFFFFFFFFFFFFFFFFFFFFFFFFFF3
:100D1000FFFFFFFFFFFFFFFFFFFFFFFFFFFFFFFFE3
:100D2000FFFF81FF1F00F0FFFFFFFFFFFFFFFFFF3F
:100D3000FFFFFFFFFFFFFFFFFFFFFFFFFFFFFFFFC3
:100D4000FFFFFFFFFFFFFFFFFFFF80FF1F00F0FF20
:100D5000FFFFFFFFFFFFFFFFFFFFFFFFFFFFFFFFA3
:100D6000FFFFFFFFFFFFFFFFFFFFFFFFFFFFFFFF93
:100D7000FFFF80FD1F01F0FFFFFFFFFFFFFFFFFFF1
:100D8000FFFFFFFFFFFFFFFFFFFFFFFFFFFFFFFF73
:100D9000FFFFFFFFFFFFFFFFFF7F00F70700E0FF00
:100DA000FFFFFFFFFFFFFFFFFFFFFFFFFFFFFFFF53
:100DB000FFFFFFFFFFFFFFFFFFFFFFFFFFFFFFFF43
:100DC000FF3F00FF0300E0FFFFFFFFFFFFFFFFFF0C
:100DD000FFFFFFFFFFFFFFFFFFFFFFFFFFFFFFFF23
:100DE000FFFFFFFFFFFFFFFFFF3F00FF0300C0FF0C
:100DF000FFFFFFFFFFFFFFFFFFFFFFFFFFFFFFFF03
:100E0000FFFFFFFFFFFFFFFFFFFFFFFFFFFFFFFFF2
:100E1000FF1F003F0000C0FFFFFFFFFFFFFFFFFFBE
:100E2000FFFFFFFFFFFFFFFFFFFFFFFFFFFFFFFFD2
:100E3000FFFFFFFFFFFFFFFFFF1F003F400080FF9E
:100E4000FFFFFFFFFFFFFFFFFFFFFFFFFFFFFFFFB2
:100E5000FFFFFFFFFFFFFFFFFFFFFFFFFFFFFFFFA2
:100E6000FF0F807FC00080FFFFFFFFFFFFFFFFFF3E
:100E7000FFFFFFFFFFFFFFFFFFFFFFFFFFFFFFFF82
:100E8000FFFFFFFFFFFFFFFFFF1F807F800180FF4D
:100E9000FFFFFFFFFFFFFFFFFFFFFFFFFFFFFFFF62
:100EA000FFFFFFFFFFFFFFFFFFFFFFFFFFFFFFFF52
:100EB000FF3F837F0003C0FFFFFFFFFFFFFFFFFF38
:100EC000FFFFFFFFFFFFFFFFFFFFFFFFFFFFFFFF32
:100ED000FFFFFFFFFFFFFFFFFFFFCFFF0001C0FF8E
:100EE000FFFFFFFFFFFFFFFFFFFFFFFFFFFFFFFF12
:100EF000FFFFFFFFFFFFFFFFFFFFFFFFFFFFFFFF02
:100F0000FFFFFFFF0000E0FFFFFFFFFFFFFFFFFF0E
:100F1000FFFFFFFFFFFFFFFFFFFFFFFFFFFFFFFFE1
:100F2000FFFFFFFFFFFFFFFFFFFFFFFF0000E0FFEE
:100F3000FFFFFFFFFFFFFFFFFFFFFFFFFFFFFFFFC1
:100F4000FFFFFFFFFFFFFFFFFFFFFFFFFFFFFFFFB1
:100F5000FFFFFFFF0000F0FFFFFFFFFFFFFFFFFFAE
:100F6000FFFFFFFFFFFFFFFFFFFFFFFFFFFFFFFF91
:100F7000FFFFFFFFFFFFFFFFFFFFFFFF0000FCFF82
:100F8000FFFFFFFFFFFFFFFFFFFFFFFFFFFFFFFF71
:100F9000FFFFFFFFFFFFFFFFFFFFFFFFFFFFFFFF61
:100FA000FFFFFFFF00FEFFFFFFFFFFFFFFFFFFFF51
:100FB000FFFFFFFFFFFFFFFFFFFFFFFFFFFFFFFF41
:100FC000FFFFFFFFFFFFFFFFFFFFFFFF04FEFFFF2D
:100FD000FFFFFFFFFFFFFFFFFFFFFFFFFFFFFFFF21
:100FE000FFFFFFFFFFFFFFFFFFFFFFFFFFFFFFFF11
:100FF000FFFFFFFF02FEFFFFFFFFFFFFFFFFFFFFFF
:10100000FFFFFFFFFFFFFFFFFFFFFFFFFFFFFFFFF0
:10101000FFFFFFFFFFFFFFFFFFFFFFFF23FEFFFFBD
:10102000FFFFFFFFFFFFFFFFFFFFFFFFFFFFFFFFD0
:10103000FFFFFFFFFFFFFFFFFFFFFFFFFFFFFFFFC0
:10104000FFFFFFFF37FEFFFFFFFFFFFFFFFFFFFF79
:10105000FFFFFFFFFFFFFFFFFFFFFFFFFFFFFFFFA0
:10106000FFFFFFFFFFFFFFFFFFFFFFFF1FFEFFFF71
:10107000FFFFFFFFFFFFFFFFFFFFFFFFFFFFFFFF80
:10108000FFFFFFFFFFFFFFFFFFFFFFFFFFFFFFFF70
:10109000FFFFFFFF0FFEFFFFFFFFFFFFFFFFFFFF51
:1010A000FFFFFFFFFFFFFFFFFFFFFFFFFFFFFFFF50
:1010B000FFFFFFFFFFFFFFFFFFFFFFFF0FFEFFFF31
:1010C000FFFFFFFFFFFFFFFFFFFFFFFFFFFFFFFF30
:1010D000FFFFFFFFFFFFFFFFFFFFFFFFFFFFFFFF20
:1010E000FFFFFFFF07FEFFFFFFFFFFFFFFFFFFFF09
:1010F000FFFFFFFFFFFFFFFFFFFFFFFFFFFFFFFF00
:10110000FFFFFFFFFFFFFFFFFFFFFFFF03FEFFFFEC
:10111000FFFFFFFFFFFFFFFFFFFFFFFFFFFFFFFFDF
:10112000FFFFFFFFFFFFFFFFFFFFFFFFFFFFFFFFCF
:10113000FFFFFFFF01FEFFFFFFFFFFFFFFFFFFFFBE
:10114000FFFFFFFFFFFFFFFFFFFFFFFFFFFFFFFFAF
:10115000FFFFFFFFFFFFFFFFFFFFFFF701FEFFFFA6
:10116000FFFFFFFFFFFFFFFFFFFFFFFFFFFFFFFF8F
:10117000FFFFFFFFFFFFFFFFFFFFFFFFFFFFFFFF7F
:10118000FFFFFFCF13FEFFFFFFFFFFFFFFFFFFFF8C
:10119000FFFFFFFFFFFFFFFFFFFFFFFFFFFFFFFF5F
:1011A000FFFFFFFFFFFFFFFFFFFFFFCF93FFFFFFEB
:1011B000FFFFFFFFFFFFFFFFFFFFFFFFFFFFFFFF3F
:1011C000FFFFFFFFFFFFFFFFFFFFFFFFFFFFFFFF2F
:1011D000FFFFFFCFD3FEFFFFFFFFFFFFFFFFFFFF7C
:1011E000FFFFFFFFFFFFFFFFFFFFFFFFFFFFFFFF0F
:1011F000FFFFFFFFFFFFFFFFFFFFFF9FFBFFFFFF63
:10120000FFFFFFFFFFFFFFFFFFFFFFFFFFFFFFFFEE
:10121000FFFFFFFFFFFFFFFFFFFFFFFFFFFFFFFFDE
:10122000FFFFFF9FFBFFFFFFFFFFFFFFFFFFFFFF32
:10123000FFFFFFFFFFFFFFFFFFFFFFFFFFFFFFFFBE
:10124000FFFFFFFFFFFFFFFFFFFFFF9FFBFFFFFF12
:10125000FFFFFFFFFFFFFFFFFFFFFFFFFFFFFFFF9E
:10126000FFFFFFFFFFFFFFFFFFFFFFFFFFFFFFFF8E
:10127000FFFFFF3FF3FFFFFFFFFFFFFFFFFFFFFF4A
:10128000FFFFFFFFFFFFFFFFFFFFFFFFFFFFFFFF6E
:10129000FFFFFFFFFFFFFFFFFFFFFF3FF3FFFFFF2A
:1012A000FFFFFFFFFFFFFFFFFFFFFFFFFFFFFFFF4E
:1012B000FFFFFFFFFFFFFFFFFFFFFFFFFFFFFFFF3E
:1012C000FFFFFF7FF2FFFFFFFFFFFFFFFFFFFFFFBB
:1012D000FFFFFFFFFFFFFFFFFFFFFFFFFFFFFFFF1E
:1012E000FFFFFFFFFFFFFFFFFFFFFF7F92FFFFFFFB
:1012F000FFFFFFFFFFFFFFFFFFFFFFFFFFFFFFFFFE
:10130000FFFFFFFFFFFFFFFFFFFFFFFFFFFFFFFFED
:10131000FFFFFFFFC0FFFFFFFFFFFFFFFFFFFFFF1C
:10132000FFFFFFFFFFFFFFFFFFFFFFFFFFFFFFFFCD
:10133000FFFFFFFFFFFFFFFFFFFFFFFFE0FFFFFFDC
:10134000FFFFFFFFFFFFFFFFFFFFFFFFFFFFFFFFAD
:10135000FFFFFFFFFFFFFFFFFFFFFFFFFFFFFFFF9D
:10136000FFFFFFFF31FFFFFFFFFFFFFFFFFFFFFF5B
:10137000FFFFFFFFFFFFFFFFFFFFFFFFFFFFFFFF7D
:10138000FFFFFFFFFFFFFFFFFFFFFFFF11FFFFFF5B
:10139000FFFFFFFFFFFFFFFFFFFFFFFFFFFFFFFF5D
:1013A000FFFFFFFFFFFFFFFFFFFFFFFFFFFFFFFF4D
:1013B000FFFFFFFF01FCFFFFFFFFFFFFFFFFFFFF3E
:1013C000FFFFFFFFFFFFFFFFFFFFFFFFFFFFFFFF2D
:1013D000FFFFFFFFFFFFFFFFFFFFFFFF81FCFFFF9E
:1013E000FFFFFFFFFFFFFFFFFFFFFFFFFFFFFFFF0D
:1013F000FFFFFFFFFFFFFFFFFFFFFFFFFFFFFFFFFD
:10140000FFFFFFFF80F9FFFFFFFFFFFFFFFFFFFF71
:10141000FFFFFFFFFFFFFFFFFFFFFFFFFFFFFFFFDC
:10142000FFFFFFFFFFFFFFFFFFFFFFFF80F9FFFF51
:10143000FFFFFFFFFFFFFFFFFFFFFFFFFFFFFFFFBC
:10144000FFFFFFFFFFFFFFFFFFFFFFFFFFFFFFFFAC
:10145000FFFFFFFF80F9FFFFFFFFFFFFFFFFFFFF21
:10146000FFFFFFFFFFFFFFFFFFFFFFFFFFFFFFFF8C
:10147000FFFFFFFFFFFFFFFFFFFFFFFF80F3FFFF07
:10148000FFFFFFFFFFFFFFFFFFFFFFFFFFFFFFFF6C
:10149000FFFFFFFFFFFFFFFFFFFFFFFFFFFFFFFF5C
:1014A000FFFFFFFF80F3FFFFFFFFFFFFFFFFFFFFD7
:1014B000FFFFFFFFFFFFFFFFFFFFFFFFFFFFFFFF3C
:1014C000FFFFFFFFFFFFFFFFFFFFFFFFC0F1FFFF79
:1014D000FFFFFFFFFFFFFFFFFFFFFFFFFFFFFFFF1C
:1014E000FFFFFFFFFFFFFFFFFFFFFFFFFFFFFFFF0C
:1014F000FFFFFFFFC0FCFFFFFFFFFFFFFFFFFFFF3E
:10150000FFFFFFFFFFFFFFFFFFFFFFFFFFFFFFFFEB
:10151000FFFFFFFFFFFFFFFFFFFFFFFFC0FEFFFF1B
:10152000FFFFFFFFFFFFFFFFFFFFFFFFFFFFFFFFCB
:10153000FFFFFFFFFFFFFFFFFFFFFFFFFFFFFFFFBB
:10154000FFFFFFFFC0FFFFFFFFFFFFFFFFFFFFFFEA
:10155000FFFFFFFFFFFFFFFFFFFFFFFFFFFFFFFF9B
:10156000FFFFFFFFFFFFFFFFFFFFFFFFC1FFFFFFC9
:10157000FFFFFFFFFFFFFFFFFFFFFFFFFFFFFFFF7B
:10158000FFFFFFFFFFFFFFFFFFFFFFFFFFFFFFFF6B
:10159000FFFFFF7FCEFBFFFFFFFFFFFFFFFFFFFF10
:1015A000FFFFFFFFFFFFFFFFFFFFFFFFFFFFFFFF4B
:1015B000FFFFFFFFFFFFFFFFFFFFFF7FFCF7FFFFC6
:1015C000FFFFFFFFFFFFFFFFFFFFFFFFFFFFFFFF2B
:1015D000FFFFFFFFFFFFFFFFFFFFFFFFFFFFFFFF1B
:1015E000FFFFFF7FF8E3FFFFFFFFFFFFFFFFFFFFAE
:1015F000FFFFFFFFFFFFFFFFFFFFFFFFFFFFFFFFFB
:10160000FFFFFFFFFFFFFFFFFFFFFF7FF0C7FFFFB1
:10161000FFFFFFFFFFFFFFFFFFFFFFFFFFFFFFFFDA
:10162000FFFFFFFFFFFFFFFFFFFFFFFFFFFFFFFFCA
:10163000FFFFFF7FE0FFFFFFFFFFFFFFFFFFFFFF59
:10164000FFFFFFFFFFFFFFFFFFFFFFFFFFFFFFFFAA
:10165000FFFFFFFFFFFFFFFFFFFFFFFFC1FFFFFFD8
:10166000FFFFFFFFFFFFFFFFFFFFFFFFFFFFFFFF8A
:10167000FFFFFFFFFFFFFFFFFFFFFFFFFFFFFFFF7A
:10168000FFFFFFFFFFFFFFFFFFFFFFFFFFFFFFFF6A
:10169000FFFFFFFFFFFFFFFFFFFFFFFFFFFFFFFF5A
:101FA000FFFFFFFFFFFFFFFF00000000003E5B4F51
:101FB0005B3E3E6B4F6B3E1C3E7C3E1C183C7E3CA9
:101FC000181C577D571C1C5E7F5E1C00183C1800B7
:101FD000FFE7C3E7FF0018241800FFE7DBE7FF3047
:101FE000483A060E2629792926407F050507407FB5
:101FF00005253F5A3CE73C5A7F3E1C1C08081C1C28
:102000003E7F14227F22145F5F005F5F06097F011D
:102010007F006689956A606060606094A2FFA29408
:1020200008047E040810207E201008082A1C0808D6
:102030001C2A08081E101010100C1E0C1E0C303824
:102040003E3830060E3E0E06000000000000005F25
:1020500000000007000700147F147F14242A7F2A41
:102060001223130864623649562050000807030003
:10207000001C2241000041221C002A1C7F1C2A084F
:10208000083E0808008070300008080808080000B2
:1020900060600020100804023E5149453E00427F26
:1020A000400072494949462141494D331814127F75
:1020B0001027454545393C4A494931412111090715
:1020C0003649494936464949291E00001400000096
:1020D0004034000000081422411414141414004168
:1020E00022140802015909063E415D594E7C121125
:1020F000127C7F494949363E414141227F4141415D
:102100003E7F494949417F090909013E41415173D7
:102110007F0808087F00417F41002040413F017F48
:10212000081422417F404040407F021C027F7F0410
:1021300008107F3E4141413E7F090909063E415159
:10214000215E7F09192946264949493203017F0149
:10215000033F4040403F1F2040201F3F4038403F4A
:10216000631408146303047804036159494D430060
:102170007F4141410204081020004141417F040297
:10218000010204404040404000030708002054542E
:1021900078407F284444383844444428384444280C
:1021A0007F385454541800087E090218A4A49C785F
:1021B0007F0804047800447D40002040403D007FBB
:1021C0001028440000417F40007C047804787C089B
:1021D0000404783844444438FC182424181824246F
:1021E00018FC7C08040408485454542404043F4454
:1021F000243C4040207C1C2040201C3C4030403C83
:1022000044281028444C9090907C4464544C4400E2
:102210000836410000007700000041360800020146
:102220000204023C2623263C1EA1A161123A404032
:10223000207A3854545559215555794122545478AF
:1022400042215554784020545579400C1E52721248
:1022500039555555593954545459395554545800D1
:1022600000457C410002457D420001457C407D12D5
:1022700011127DF0282528F07C5455450020545437
:102280007C547C0A097F4932494949323A444444E2
:102290003A324A4848303A4141217A3A424020781D
:1022A000009DA0A07D3D4242423D3D4040403D3C1E
:1022B00024FF2424487E4943662B2FFC2F2BFF0943
:1022C00029F620C0887E0903205454794100004437
:1022D0007D413048484A32384040227A007A0A0A22
:1022E000727D0D19317D2629292F28262929292695
:1022F00030484D4020380808080808080808382FDA
:1023000010C8ACBA2F102834FA00007B0000081463
:102310002A142222142A1408AA005500AAAA55AA8F
:1023200055AA000000FF00101010FF00141414FF45
:10233000001010FF00FF1010F010F0141414FC0037
:102340001414F700FF0000FF00FF1414F404FC1441
:102350001417101F10101F101F1414141F0010103A
:1023600010F0000000001F101010101F10101010AF
:10237000F010000000FF101010101010101010FFCF
:1023800010000000FF140000FF00FF00001F1017E6
:102390000000FC04F414141710171414F404F400CF
:1023A00000FF00F714141414141414F700F7141495
:1023B00014171410101F101F141414F4141010F01C
:1023C00010F000001F101F0000001F14000000FC90
:1023D000140000F010F01010FF10FF141414FF147C
:1023E0001010101F00000000F010FFFFFFFFFFF0B3
:1023F000F0F0F0F0FFFFFF0000000000FFFF0F0F04
:102400000F0F0F3844443844FC4A4A4A347E0202D3
:102410000606027E027E0263554941633844443C0D
:1024200004407E201E2006027E020299A5E7A5999F
:102430001C2A492A1C4C7201724C304A4D4D3030D6
:1024400048784830BC625A463D3E494949007E01C1
:1024500001017E2A2A2A2A2A44445F444440514AE0
:10246000444040444A51400000FF0103E080FF0027
:102470000008086B6B083612362436060F090F0663
:10248000000018180000001010003040FF0101008B
:102490001F01011E00191D1712003C3C3C3C0000AE
:1024A0000000000011241FBECFEFD8E0DEBFCDBF7B
:1024B00011E0A0E0B1E0EAEDFDE402C005900D926C
:1024C000A436B107D9F721E0A4E6B1E001C01D921E
:1024D000A139B207E1F70E947E200C94EB260C9400
:1024E00000008FEF8AB95F9A209A089584B18E62B6
:1024F00084B980E58CBD8DB581608DBD299A089524
:102500008EBD0DB407FEFDCF089595B19C7F95B9A2
:102510009AE19A95F1F700C00E948012299A0895D5
:10252000289A95E09A95F1F7000029980E94801268
:10253000299A0895DF92EF92FF920F931F93CF9302
:10254000DF93E82ED92ED62F172F042FF52EC22F6A
:102550008AE20E9485128D2D0E9490128E2D0E947B
:1025600090128F2D0E949012802F0E9490128BE269
:102570000E948512812F0E9490128D2F0E9490122E
:102580008C2F0E9490128C2F0E9490128CE2DF916F
:10259000CF911F910F91FF90EF90DF900C948512D7
:1025A0005F9A2FEF83EC99E0215080409040E1F753
:1025B00000C000005F982FEF83EC99E0215080402D
:1025C0009040E1F700C000005F9A2FEF83EC99E0A4
:1025D000215080409040E1F700C0000008950E9423
:1025E00071120E9476120E94D01281E00E94851220
:1025F0002FEF83ED90E3215080409040E1F700C041
:1026000000008BEC0E94851289E30E9490128CE2FC
:102610000E94901280E00E94901284E30E94901227
:1026200082E00E9490128FEC0E94851280E00E944E
:10263000901281EC0E94901280E30E94901288EE2A
:102640000E94851285E80E94901280E00E949012FC
:1026500088E70E9490128AEE0E94851280E00E9414
:10266000901280E00E9490128DEE0E94851284E606
:102670000E94901283E00E94901282E10E949012C8
:1026800081E80E94901287EF0E94851280E20E94EA
:10269000901280EC0E94851283E20E94901281ECDD
:1026A0000E94851280E10E94901285EC0E948512A2
:1026B0008EE30E94901288E20E94901287EC0E94A2
:1026C000851286E80E94901286E30E94851288E4B3
:1026D0000E9490128AE30E94851285E50E94901262
:1026E00081EB0E94851280E00E94901288E10E9496
:1026F000901286EB0E94851288E00E94901282E878
:102700000E94901287E20E94901282EF0E9485122E
:1027100080E00E94901286E20E94851281E00E9471
:10272000901280EE0E9485128FE00E94901281E349
:102730000E9490128BE20E9490128CE00E949012F4
:102740008EE00E94901288E00E9490128EE40E9417
:10275000901281EF0E94901287E30E94901287E00E
:102760000E94901280E10E94901283E00E949012D9
:102770008EE00E94901289E00E94901280E00E94F8
:10278000901281EE0E94851280E00E9490128EE0ED
:102790000E94901284E10E94901283E00E949012A5
:1027A00081E10E94901287E00E94901281E30E94D2
:1027B000901281EC0E94901288E40E94901288E0AE
:1027C0000E9490128FE00E9490128CE00E94901262
:1027D00081E30E94901286E30E9490128FE00E9493
:1027E000901281E10E9485122FEF8BED95E0215030
:1027F00080409040E1F700C0000089E20C9485120F
:10280000CF93C82F892F0E9490128C2FCF910C94B8
:102810009012EF92FF920F931F93CF93DF937C015F
:102820002091120130911301409114015091150132
:10283000215031094150510970E060E090E080E0A2
:102840000E949A12D0E0C0E080911401909115018D
:10285000C817D907A8F0DF91CF911F910F91FF9072
:10286000EF900895C7010E9400140F5F1F4F8091E1
:1028700012019091130108171907A0F32196E4CFD4
:1028800010E000E0F4CFCF93DF93EA012091140130
:102890003091150182179307A0F420911201309115
:1028A00013016217730768F49B012F5F3F4FAC0160
:1028B0004F5F5F4F0E949A12CE01DF91CF910C942F
:1028C0000014DF91CF9108950F931F93CF93DF935F
:1028D000EA018901209114013091150182179307B3
:1028E00018F5209112013091130162177307E0F47B
:1028F00040911201509113019E0121503109260F80
:10290000371F2417350730F0C0911201D091130101
:10291000C61BD70B9B01215031092C0F3D1FAC0169
:102920000E949A12219728F4DF91CF911F910F9165
:102930000895C8010E940014F5CF0F931F93CF9301
:10294000DF93EA018901209114013091150182176A
:10295000930718F520911201309113016217730744
:10296000E0F440911401509115019E01215031096C
:10297000280F391F2417350730F0C0911401D0916A
:102980001501C81BD90BAC01415051094C0F5D1FFB
:102990009B010E949A12219728F4DF91CF911F91F9
:1029A0000F910895C8010E940014F5CFCF92DF92D5
:1029B000EF92FF920F931F93CF93DF937A01E90178
:1029C000209114013091150182179307C8F52091C9
:1029D0001201309113016217730790F540911401B1
:1029E00050911501970121503109280F391F2417E3
:1029F000350730F0E0901401F0901501E81AF90A5B
:102A000040911201509113019E0121503109260F6E
:102A1000371F2417350730F0C0911201D0911301F0
:102A2000C61BD70B9B01215031092C0F3D1FAC0158
:102A3000415051094E0D5F1D0E949A122097A1F43A
:102A4000DF91CF911F910F91FF90EF90DF90CF908A
:102A50000895C8010E94001481E0C81AD108C11469
:102A6000D104B9F72197EACF6701F9CFCF93C82FE7
:102A700086E30E948512C370C23089F0C33001F131
:102A800088E4C13069F488E20E94901280E491E009
:102A9000909315018093140180EF90E00BC088E8BB
:102AA0000E94901280EF90E09093150180931401A2
:102AB00080E491E09093130180931201CF910895E7
:102AC00088EEE2CF2F923F924F925F926F927F9269
:102AD0008F929F92AF92BF92CF92DF92EF92FF922E
:102AE0000F931F93CF93DF9300D000D000D0CDB7CA
:102AF000DEB77C016B015E834D83890181E090E04C
:102B00003C01641A750ACA019195819591099C014D
:102B1000220F331F3C832B83BA016C0D7D1DA8014E
:102B2000C7010E944314B6018D819E81681B790BF9
:102B3000A801C7010E944314A801B6018D819E819E
:102B40008E0D9F1D0E944314A801B601C7012D815F
:102B50003E81821B930B0E944314B12CA12C81E077
:102B600090E09A8389838D819E81A816B906CCF066
:102B700026960FB6F894DEBF0FBECDBFDF91CF9182
:102B80001F910F91FF90EF90DF90CF90BF90AF908B
:102B90009F908F907F906F905F904F903F902F907D
:102BA000089577FC0DC02D813E81215031093E836F
:102BB0002D838B819C8102969C838B83680E791E6A
:102BC0009FEFA91AB90A29813A812E5F3F4F3A83B4
:102BD0002983620E731E27014A0C5B1CA8018D809D
:102BE0009E808C0C9D1CB401C2010E9443141701ED
:102BF0002A183B08A801B401C1010E944314A8018E
:102C000046018D819E81881A990AB401C2010E94F1
:102C10004314A801B401C1010E94431446018A0C67
:102C20009B1CA801B4014D805E804E0C5F1CC2014C
:102C30000E944314A801B40117012D813E81221A7C
:102C4000330AC1010E94431446018A189B08A80157
:102C5000B401C2010E944314A801B401C1010E9441
:102C6000431481CF2F923F924F925F926F927F9247
:102C70008F929F92AF92BF92CF92DF92EF92FF928C
:102C80000F931F93CF93DF9300D000D0CDB7DEB763
:102C90006C015B015C834B8381E090E04C01841A02
:102CA000950A3A01719461947108660C771CF12CB5
:102CB000E12C44244394512C322F34703983422F19
:102CC00042704A83522F5870252E2170322E2B814C
:102CD0003C81E216F306BCF00F900F900F900F901E
:102CE000DF91CF911F910F91FF90EF90DF90CF90E8
:102CF000BF90AF909F908F907F906F905F904F901C
:102D00003F902F90089597FC0AC08B819C8101977A
:102D10009C838B8392E0690E711C860C971C2FEFAD
:102D2000E21AF20A32E0430E511C840C951C4981D0
:102D30004423A1F0A8016B817C816A0D7B1DC60133
:102D40008E0D9F1D0E944314A801B5016E0D7F1DBD
:102D50008B819C818C0D9D1D0E9443145A815523AB
:102D6000A9F0A801B5018B819C81681B790BC60174
:102D70008E0D9F1D0E944314A801B5016E197F0995
:102D80008B819C818C0D9D1D0E9443142220A9F0F3
:102D9000A801B5016E0D7F1DC6012B813C81821BF0
:102DA000930B0E944314A8016B817C816A0D7B1DEB
:102DB000C6018E199F090E944314332009F487CF5E
:102DC000A801B5016E197F09C6012B813C81821BC8
:102DD000930B0E944314A801B5018B819C81681B51
:102DE000790BC6018E199F090E94431470CF2F9250
:102DF0003F924F925F926F927F928F929F92AF928B
:102E0000BF92CF92DF92EF92FF920F931F93CF93D7
:102E1000DF9300D000D0CDB7DEB76B017A013C83E1
:102E20002B8358018901061B170B17FF03C011954F
:102E3000019511094701881A990A97FE03C09194D8
:102E400081949108801691065CF03B812C81FC8274
:102E5000EB82E32EF22E3C2D2D2D6C01832F922F31
:102E60002B813C812C153D055CF03E2D2F2D7C01E6
:102E7000832F922F3B812C81DC82CB82C32ED22EDA
:102E800016012B813C81221A330A2C014E185F084F
:102E900057FE03C0519441945108310137FE03C0DD
:102EA0003FEF631A730A75946794E816F906E4F124
:102EB0008FEF9FEF9A8389838B819C81C816D906F7
:102EC000BCF40F900F900F900F90DF91CF911F9156
:102ED0000F91FF90EF90DF90CF90BF90AF909F90B9
:102EE0008F907F906F905F904F903F902F900895BC
:102EF000A5016B817C81C701801691061CF0B7018A
:102F00008B819C810E9443146418750877FE06C06B
:102F100029813A81E20EF31E620C731C8B819C8125
:102F200001969C838B83C8CF21E030E03A832983CC
:102F3000C3CF0F931F93460F571F4150510989016B
:102F40009A01AC010E94F7161F910F9108952F92DC
:102F50003F924F925F926F927F928F929F92AF9229
:102F6000BF92CF92DF92EF92FF920F931F93CF9376
:102F7000DF9300D000D0CDB7DEB75C014B015C839E
:102F80004B8381E090E02C01441A550A1A013194D8
:102F900021943108220C331CD12CC12C662463945B
:102FA000712C422F4170498322702A834B815C81AE
:102FB000C416D506BCF00F900F900F900F90DF91C4
:102FC000CF911F910F91FF90EF90DF90CF90BF9026
:102FD000AF909F908F907F906F905F904F903F90B9
:102FE0002F90089557FC0AC08B819C8101979C8388
:102FF0008B8392E0290E311C420C531CEFEFCE1A4A
:10300000DE0AF2E06F0E711C460C571C4981442306
:1030100001F14B815C81440F551F4F5F5F4F400FA3
:10302000511F9701B4018B819C81681B790BC501ED
:103030008C0D9D1D0E9499179701A301400F511FF0
:10304000B4016C197D098B819C818A0D9B1D0E94A6
:1030500099179A81992309F4A9CF4B815C81440F78
:10306000551F4F5F5F4F400F511F9701B401EB8118
:10307000FC816E1B7F0BC5018C199D090E9499175D
:103080009701A301400F511FB4016C197D09C501BF
:10309000EB81FC818E1B9F0B0E94991787CFAF920B
:1030A000BF92CF92DF92EF92FF920F931F93CF9335
:1030B000DF936C015B01EA017901440F551F4F5FFB
:1030C0005F4F6C1B7D0BC6010E94641410E000E092
:1030D00023E0AE01B501C6010E94A717DF91CF9191
:1030E0001F910F91FF90EF90DF90CF90BF90AF9026
:1030F00008950F931F93480F591F4150510989019B
:103100009B010E94F7161F910F910895AF92BF92F5
:10311000CF92DF92EF92FF920F931F93CF93DF93A3
:10312000EC017B015A01690198010E947918B701ED
:103130006C0D7D1D615071099801A501CE010E94A1
:1031400079189801A601B701CE010E949917CE0106
:103150008A0D9B1D9801A601B7010197DF91CF91C0
:103160001F910F91FF90EF90DF90CF90BF90AF90A5
:103170000C949917AF92BF92CF92DF92EF92FF9289
:103180000F931F93CF93DF936B015901EC017C01E7
:10319000E40EF51ECE15DF055CF0DF91CF911F9197
:1031A0000F91FF90EF90DF90CF90BF90AF90089578
:1031B0009801A501B601CE010E9499172196EACF88
:1031C0002F923F924F925F926F927F928F929F9237
:1031D000AF92BF92CF92DF92EF92FF920F931F9325
:1031E000CF93DF9300D000D0CDB7DEB72C013B01E9
:1031F0001A0169011C830B83000F111F4A01801AF9
:10320000910AAB80BC80A40CB51C9701A401C50138
:103210000E947918C3018C0D9D1D9A838983BC017E
:10322000615071099701A401C5010E947918C01A63
:10323000D10A8B819C81680E791E9701A601B3018A
:10324000C2010E949917420C531C9701A601B301B9
:10325000C20101970E949917870121E04B815C818F
:10326000B301C5010E9432168B819C81481A590A0C
:1032700091E0491A510822E04B815C81B301C201FF
:103280000E943216C980DA808B819C81C81AD90AC3
:1032900091E0C91AD10824E04B815C81B601C201DA
:1032A0000E94321628E04B815C81B601C5010E9464
:1032B00032160F900F900F900F90DF91CF911F91CA
:1032C0000F91FF90EF90DF90CF90BF90AF909F90C5
:1032D0008F907F906F905F904F903F902F900895C8
:1032E0002F923F924F925F926F927F928F929F9216
:1032F000AF92BF92CF92DF92EF92FF920F931F9304
:10330000CF93DF931C015B012A01E90168014701AA
:103310007801EE0CFF1C3801620C731C4E195F091A
:103320008401C3010E94BA18CE19DF092197AC0CA1
:10333000BD1C420C531CC2018C199D0974018E01E5
:1033400021E0A601B50101970E94A71722E0A6017E
:10335000B501C3010E94A717DF91CF911F910F9173
:10336000FF90EF90DF90CF90BF90AF909F908F90A5
:103370007F906F905F904F903F902F9008952F9285
:103380003F924F925F926F927F928F929F92AF92F5
:10339000BF92CF92DF92EF92FF920F931F93CF9342
:1033A000DF9300D000D000D01F92CDB7DEB72C0144
:1033B0003B014A0159011801C901079697FD07967B
:1033C0009C0193E0359527959A95E1F73B832A83F5
:1033D000D12CC12C10E000E0021513050CF44EC0F6
:1033E00027960FB6F894DEBF0FBECDBFDF91CF9109
:1033F0001F910F91FF90EF90DF90CF90BF90AF9013
:103400009F908F907F906F905F904F903F902F9004
:1034100008958E819F8187709927892B09F13981C1
:10342000330F3983998197FF09C0A7016C817D8192
:103430008E819F81840D951D0E9443142E813F81B2
:103440002F5F3F4F3F832E832E813F812A153B05FF
:1034500004F30F5F1F4F8A819B81C80ED91EBCCF1A
:10346000EE81FF8183E0F595E7958A95E1F7EC0D14
:10347000FD1DE80DF91D84918983D4CF1F821E8222
:10348000C801860D971D9D838C83DECF2F923F92BE
:103490004F925F926F927F928F929F92AF92BF9264
:1034A000CF92DF92EF92FF920F931F93CF93DF9310
:1034B00000D000D01F92CDB7DEB72C014B013A01EE
:1034C00059011801C901079697FD07969C0193E0E1
:1034D000359527959A95E1F73B832A838401D12C72
:1034E000C12CC80188199909821593050CF44CC0A8
:1034F0000F900F900F900F900F90DF91CF911F9131
:103500000F91FF90EF90DF90CF90BF90AF909F9082
:103510008F907F906F905F904F903F902F90089585
:103520008C819D8187709927892B01F1398136958E
:103530003983998190FF08C0A701B8018C819D81D2
:10354000840D951D0E9443142C813D812F5F3F4FB8
:103550003D832C838C819D818A159B050CF30F5F25
:103560001F4F2A813B81C20ED31EBBCFEC81FD8150
:1035700083E0F595E7958A95E1F7EC0DFD1DE60DE5
:10358000F71D84918983D5CF1D821C82E3CF809162
:1035900086019091870190938101809380018091B1
:1035A00074019091750190937F0180937E0108953D
:1035B000809186019091870190937B0180937A019D
:1035C00080917401909175019093830180938201A1
:1035D0000895809186019091870190937D01809359
:1035E0007C01809174019091750190938A01809380
:1035F00089010895809186019091870190937701C8
:103600008093760180917401909175019093790176
:103610008093780108952F923F924F925F926F921C
:103620007F928F929F92AF92BF92CF92DF92EF9252
:10363000FF920F931F93CF93DF9300D000D000D061
:103640001F92CDB7DEB74B0119011B830A8320916E
:103650001401309115018217930708F060C0209182
:103660001201309113016217730708F058C09C01D2
:1036700056E0E59E200D311D1124121613060CF0A4
:103680004EC0CE2CD12C960153E0220F331F5A95F9
:10369000E1F7260F371F121613060CF040C025E085
:1036A000429FA00111249F838E835C01198248559B
:1036B000504E9A01281B390B3D832C833981F12C04
:1036C000353029F0EC81FD81EA0DFB1DF4902401D9
:1036D000712C612CF0FE3CC051E08101E51245C027
:1036E000A101B401660D771DC5010E944314F69433
:1036F0002FEF621A720A4C0C5D1C38E063167104DD
:1037000049F75FEFA51AB50A8E819F818C0D9D1D2B
:103710009F838E8399819F5F9983963079F6279650
:103720000FB6F894DEBF0FBECDBFDF91CF911F91D2
:103730000F91FF90EF90DF90CF90BF90AF909F9050
:103740008F907F906F905F904F903F902F90089553
:103750008A819B818215930551F291E00A811B8138
:10376000E91203C04A815B81BCCF9601A601B20178
:103770008E819F810E94D614BACF90938701809347
:10378000860170937501609374010895909385018B
:10379000809384017093730160937201089589305E
:1037A00028F4811101C081E0809388010895EF928F
:1037B0000F931F93482F8A30C1F480918801209184
:1037C00074013091750148E0849FC0011124820F7B
:1037D000931F90937501809374011092870110924A
:1037E00086011F910F91EF9008958D30D1F3E090F5
:1037F0008801009172011091730120918401309130
:10380000850160917401709175018091860190919C
:1038100087010E940B1B2091880180918601909165
:10382000870136E0239F800D911D1124909387011D
:1038300080938601D6CF0E94D71B81E090E0089547
:103840008F929F92AF92BF92DF92EF92FF920F936F
:103850001F93CF93DF9386E191E090938E01809345
:103860008D0104E010E0109387010093860110930E
:103870007501009374018FE39FE10197F1F700C098
:10388000000080EE97E09093850180938401109270
:103890007301109272018FE39FE10197F1F700C06D
:1038A0000000C2E0C09388018FE39FE10197F1F728
:1038B00000C0000084E291E09F938F930E94E72371
:1038C0008FE39FE10197F1F700C0000080E098EFDF
:1038D000909385018093840110927301109272017C
:1038E0008FE39FE10197F1F700C00000C0938801CA
:1038F0008FE39FE10197F1F700C000008CE291E0B7
:103900009F938F930E94E7238FE39FE10197F1F745
:1039100000C00000109387010093860188E2A82E62
:10392000B12CB0927501A09274018FE39FE10197D1
:10393000F1F700C000008FEF97E09093850180932E
:10394000840110927301109272018FE39FE101973D
:10395000F1F700C00000D4E0D09388018FE39FE12D
:103960000197F1F700C0000086E50E94D71B8FE3A6
:103970009FE10197F1F700C00000809174019091E0
:10398000750106969093750180937401C3E0C0930E
:1039900088018FE39FE10197F1F700C000008DE3FC
:1039A00091E00E94FD238FE39FE10197F1F700C0B2
:1039B000000080917401909175010C9690937501AF
:1039C000809374010E94C71A81E491E09F938F93C2
:1039D0000E94E7238FE39FE10197F1F700C0000009
:1039E000109387010093860198E7892E912C90927D
:1039F0007501809274018FE39FE10197F1F700C098
:103A00000000D09388018FE39FE10197F1F700C098
:103A1000000086E50E94D71B8FE39FE10197F1F735
:103A200000C00000809174019091750106969093FA
:103A3000750180937401C09388018FE39FE1019722
:103A4000F1F700C0000088E491E00E94FD238FE3BD
:103A50009FE10197F1F700C000000E94D81A25E00D
:103A6000D22ED092880100E511E01F930F930E949F
:103A7000E7238FE39FE10197F1F700C0000034EAEC
:103A8000E32EF12CF0928701E0928601B09275014D
:103A9000A09274018FE39FE10197F1F700C000004D
:103AA00080EE9FEF909385018093840110927301C3
:103AB000109272018FE39FE10197F1F700C00000BF
:103AC000D09388018FE39FE10197F1F700C00000D8
:103AD00089E40E94D71B8FE39FE10197F1F700C0B3
:103AE0000000809174019091750106969093750184
:103AF00080937401C09388018FE39FE10197F1F7F0
:103B000000C000008DE391E09F938F930E94E72314
:103B10008FE39FE10197F1F700C00000F092870169
:103B2000E092860180917401909175018496909342
:103B30007501809374010E94E91AC093880186E59B
:103B400091E09F938F930E94E7238FE39FE101977A
:103B5000F1F700C00000F0928701E0928601909298
:103B60007501809274018FE39FE10197F1F700C026
:103B70000000D09388018FE39FE10197F1F700C027
:103B8000000089E40E94D71B8FE39FE10197F1F7C2
:103B900000C0000080917401909175010696909389
:103BA000750180937401C09388018FE39FE10197B1
:103BB000F1F700C000008DE591E09F938F930E9484
:103BC000E7238FE39FE10197F1F700C00000F09237
:103BD0008701E09286010E94FA1A80917401909107
:103BE0007501C0969093750180937401D0928801FD
:103BF0001F930F930E94E7239FEF27EA81E69150DE
:103C000020408040E1F700C000008DB79EB740968D
:103C10000FB6F8949EBF0FBE8DBFDF91CF911F915D
:103C20000F91FF90EF90DF90BF90AF909F908F909B
:103C300008959091C00095FFFCCF8093C600089531
:103C4000CF93DF93EC018991811103C0DF91CF9174
:103C500008950E94191EF7CFCF93DF93CDB7DEB73B
:103C60002A970FB6F894DEBF0FBECDBF4AE0BE0163
:103C70006F5F7F4F90E00E94C223CE0101960E94A9
:103C8000201E2A960FB6F894DEBF0FBECDBFDF917F
:103C9000CF910895CF93DF93CDB7DEB72A970FB6B4
:103CA000F894DEBF0FBECDBF4AE0BE016F5F7F4F0D
:103CB0000E94CD23CE0101960E94201E2A960FB6A7
:103CC000F894DEBF0FBECDBFDF91CF910895109263
:103CD000640082E08093B9008CE08093B80084E0B7
:103CE0008093BC00089584EA8093BC008091BC005E
:103CF00087FFFCCF089584E98093BC0008958093EA
:103D0000BB0084E88093BC008091BC0087FFFCCF9F
:103D1000089584EC8093BC008091BC0087FFFCCFA9
:103D20008091BB00089584E88093BC008091BC0022
:103D300087FFFCCF8091BB0008958091B900887FF8
:103D40000895982F862F97FF04C0905891958195DC
:103D500091090895CF93C82F0E94731E0E949D1E43
:103D6000883031F58CEE0E947F1E0E949D1E8831A6
:103D700009F58C2F0E947F1E0E949D1EC3E0883291
:103D8000A1F40E94731E0E949D1EC4E0803169F45C
:103D90008DEE0E947F1E0E949D1EC5E0803429F496
:103DA0000E94931EC82F0E947B1E8C2FCF910895D6
:103DB000CBE7FBCFC2E0F9CFCF93DF93D82FC62F4D
:103DC0000E94731E0E949D1E8830D9F48CEE0E94C2
:103DD0007F1E0E949D1E8831B1F48D2F0E947F1E90
:103DE0000E949D1E883289F48C2F0E947F1E0E94A3
:103DF0009D1E883261F40E947B1E80E0DF91CF918E
:103E000008958BE0FBCF86E1F9CF81E2F7CF8CE21A
:103E1000F5CFCF93DF9360E087E00E94DC1E2FEFA9
:103E200031EE84E0215030408040E1F700C00000D6
:103E300067E088E00E94DC1E9FEF21EE34E09150A5
:103E400020403040E1F700C0000067E088E00E94B9
:103E5000DC1E8FE39CE90197F1F700C0000080E1D0
:103E60000E94AA1EC82F9FEF21EE34E091502040FF
:103E70003040E1F700C0000081E10E94AA1ED82F67
:103E80008FEF91EE24E0815090402040E1F700C098
:103E9000000082E10E94AA1E3FEF91EE24E0315023
:103EA00090402040E1F700C0000090E1C99F9001E0
:103EB00011249D2F92959F70292B30936701209399
:103EC0006601DF709D2F9093650180936401C901A5
:103ED000DF91CF910895CF93DF9383E00E94AA1ED4
:103EE000C82F2FEF31EE84E0215030408040E1F7C1
:103EF00000C0000084E00E94AA1ED82F9FEF21EE90
:103F000034E0915020403040E1F700C0000085E0EF
:103F10000E94AA1E282F8FEF91EE34E0815090402E
:103F20003040E1F700C000007C2F6D2F90E080E072
:103F3000982F872F762F6627622BDF91CF910895D8
:103F40002FEF81EE94E0215080409040E1F700C0D7
:103F5000000061E086E00E94DC1E2FEF81EE94E01D
:103F6000215080409040E1F700C0000060E887E009
:103F70000E94DC1E2FEF81EE94E0215080409040A3
:103F8000E1F700C0000067E088E00E94DC1E2FEF30
:103F900081EE94E0215080409040E1F700C00000A5
:103FA0000E946B1F0E946E2220E030E040E056E34A
:103FB0000E94FA220E943622089562E088E00E9460
:103FC000DC1E2FEF81EE94E0215080409040E1F71D
:103FD00000C0000080E00E94AA1E2FEF81EE94E056
:103FE000215080409040E1F700C0000081E00E9435
:103FF000AA1E2FEF81EE94E0215080409040E1F71F
:1040000000C0000082E00E94AA1E2FEF81EE94E023
:10401000215080409040E1F700C0000060E070E077
:10402000CB010895CF92DF92EF92FF92CF9383E07E
:104030000E94AA1EC82F8FE39CE90197F1F700C0E8
:10404000000084E00E94AA1EF82E8FE39CE90197ED
:10405000F1F700C0000085E00E94AA1E282F8FE320
:104060009CE90197F1F700C000007C2F6F2D90E0D4
:1040700080E0982F872F762F6627622B61157105B8
:1040800020E882079105B0F18058910990958095BC
:10409000709561957F4F8F4F9F4FE0906401F09036
:1040A000650120E030E048E750E00E946723D70137
:1040B0000E9486230E946E226B017C016091660142
:1040C0007091670190E080E00E946C2220E030E077
:1040D00040E05FE30E94FA229B01AC01C701B601F8
:1040E0000E94CA210E943622CF91FF90EF90DF906C
:1040F000CF90089560E070E0CB01CFCF80E091E0F9
:1041000090938E0180938D010E94EF1290E080E0E9
:104110000E9409142FEF83ED90E3215080409040DE
:10412000E1F700C0000083E00E9436158FE39FE1B5
:104130000197F1F700C0000080EF90E090936F01CD
:1041400080936E01109269011092680110927101C2
:104150001092700180EE93E090936D0180936C015A
:1041600070E060E080E098EF0E94C61B60917E01E5
:1041700070917F0180918001909181010E94BD1B0F
:104180008FE39FE10197F1F700C0000083E00E94F8
:10419000CF1B81E30E94D71B8FE39FE10197F1F7CB
:1041A00000C0000080E30E94D71B8FE39FE10197CE
:1041B000F1F700C000008EE20E94D71B8FE39FE161
:1041C0000197F1F700C0000082E30E94D71B8FE344
:1041D0009FE10197F1F700C0000083E30E94D71B25
:1041E0008FE39FE10197F1F700C000006091820129
:1041F0007091830180917A0190917B010E94BD1B97
:104200008FE39FE10197F1F700C0000085E00E9475
:10421000CF1B81E30E94D71B8FE39FE10197F1F74A
:1042200000C0000080E30E94D71B8FE39FE101974D
:10423000F1F700C000008EE20E94D71B8FE39FE1E0
:104240000197F1F700C0000082E30E94D71B8FE3C3
:104250009FE10197F1F700C0000083E30E94D71BA4
:104260008FE39FE10197F1F700C000009FEF27EA7D
:1042700081E6915020408040E1F700C0000060914D
:104280007E0170917F0180918001909181010E9457
:10429000BD1B8FE39FE10197F1F700C0000083E0B1
:1042A0000E94CF1B89E30E94D71B8FE39FE10197F8
:1042B000F1F700C0000080E30E94D71B8FE39FE16D
:1042C0000197F1F700C000008EE20E94D71B8FE338
:1042D0009FE10197F1F700C0000084E30E94D71B23
:1042E0008FE39FE10197F1F700C0000085E30E9492
:1042F000D71B8FE39FE10197F1F700C000006091A9
:1043000082017091830180917A0190917B010E94DA
:10431000BD1B8FE39FE10197F1F700C0000085E02E
:104320000E94CF1B89E30E94D71B8FE39FE1019777
:10433000F1F700C0000080E30E94D71B8FE39FE1EC
:104340000197F1F700C000008EE20E94D71B8FE3B7
:104350009FE10197F1F700C0000084E30E94D71BA2
:104360008FE39FE10197F1F700C0000085E30E9411
:10437000D71B8FE39FE10197F1F700C000009FEF8B
:1043800027EA81E6915020408040E1F700C000001C
:10439000E7CE5058BB27AA270E94E1210C94C022E7
:1043A0000E94B22238F00E94B92220F039F49F3FD7
:1043B00019F426F40C94AF220EF4E095E7FB0C946C
:1043C000A922E92F0E94D12258F3BA176207730776
:1043D0008407950720F079F4A6F50C94F3220EF4E7
:1043E000E0950B2EBA2FA02D0B01B90190010C0105
:1043F000CA01A0011124FF27591B99F0593F50F41D
:10440000503E68F11A16F040A22F232F342F442774
:10441000585FF3CF469537952795A795F04053956C
:10442000C9F77EF41F16BA0B620B730B840BBAF03C
:104430009150A1F0FF0FBB1F661F771F881FC2F7A7
:104440000EC0BA0F621F731F841F48F487957795BB
:104450006795B795F7959E3F08F0B0CF9395880F75
:1044600008F09927EE0F9795879508950E943D22B1
:104470006894B1110C94F42208950E94D92288F016
:104480009F5798F0B92F9927B751B0F0E1F0660F18
:10449000771F881F991F1AF0BA95C9F714C0B13059
:1044A00091F00E94F322B1E008950C94F322672F5B
:1044B000782F8827B85F39F0B93FCCF38695779588
:1044C0006795B395D9F73EF4909580957095619571
:1044D0007F4F8F4F9F4F0895E89409C097FB3EF49C
:1044E00090958095709561957F4F8F4F9F4F992341
:1044F000A9F0F92F96E9BB279395F69587957795BF
:104500006795B795F111F8CFFAF4BB0F11F460FF7E
:104510001BC06F5F7F4F8F4F9F4F16C0882311F0D6
:1045200096E911C0772321F09EE8872F762F05C0EA
:10453000662371F096E8862F70E060E02AF09A9585
:10454000660F771F881FDAF7880F9695879597F97A
:10455000089597F99F6780E870E060E008959FEF05
:1045600080EC089500240A9416161706180609060A
:10457000089500240A9412161306140605060895D9
:10458000092E0394000C11F4882352F0BB0F40F461
:10459000BF2B11F460FF04C06F5F7F4F8F4F9F4FA1
:1045A000089557FD9058440F551F59F05F3F71F023
:1045B0004795880F97FB991F61F09F3F79F087958A
:1045C0000895121613061406551FF2CF4695F1DF13
:1045D00008C0161617061806991FF1CF86957105A3
:1045E000610508940895E894BB2766277727CB01D7
:1045F00097F908950E940D230C94C0220E94B222C4
:1046000038F00E94B92220F0952311F00C94A922D1
:104610000C94AF2211240C94F4220E94D12270F346
:10462000959FC1F3950F50E0551F629FF001729F57
:10463000BB27F00DB11D639FAA27F00DB11DAA1F66
:10464000649F6627B00DA11D661F829F2227B00DB3
:10465000A11D621F739FB00DA11D621F839FA00D3E
:10466000611D221F749F3327A00D611D231F849F8E
:10467000600D211D822F762F6A2F11249F575040E5
:104680009AF0F1F088234AF0EE0FFF1FBB1F661F60
:10469000771F881F91505040A9F79E3F510580F029
:1046A0000C94A9220C94F4225F3FE4F3983ED4F3D7
:1046B000869577956795B795F795E7959F5FC1F7CD
:1046C000FE2B880F911D9695879597F90895052ED5
:1046D00097FB1EF400940E947E2357FD07D00E9492
:1046E000912307FC03D04EF40C947E235095409503
:1046F000309521953F4F4F4F5F4F0895909580958E
:10470000709561957F4F8F4F9F4F08950E94B323FF
:10471000A59F900DB49F900DA49F800D911D112415
:104720000895A1E21A2EAA1BBB1BFD010DC0AA1FF2
:10473000BB1FEE1FFF1FA217B307E407F50720F00A
:10474000A21BB30BE40BF50B661F771F881F991F85
:104750001A9469F760957095809590959B01AC01CE
:10476000BD01CF010895A29FB001B39FC001A39FD7
:10477000700D811D1124911DB29F700D811D11249A
:10478000911D0895BB274A3031F4992322F4BDE2EC
:10479000909581959F4F0C94CE23BB27FB01552705
:1047A000AA27880F991FAA1FA41710F0A41B83958E
:1047B0005051B9F7A05DAA3308F0A95DA193009705
:1047C00079F7B111B1931192CB010C941626A0E0A8
:1047D000B0E0EDEEF3E20C94C426AE014B5F5F4F08
:1047E000FA0161917191AF0180918D0190918E01DB
:1047F0000E942D24E2E00C94E0260F931F93CF93A8
:10480000DF93E0918D01F0918E01238121FF1BC088
:104810008C01D0E0C0E0F80181918F0160918D01A1
:1048200070918E01DB011896ED91FC911997882308
:1048300031F00995892B79F3DFEFCFEFECCF8AE0E8
:104840000995892B19F08FEF9FEF02C08D2F9C2FB8
:10485000DF91CF911F910F910895ACE0B0E0E3E3B9
:10486000F4E20C94B4266C017B018A01FC011782EE
:104870001682838181FFBEC1CE0101964C01F601F3
:104880009381F70193FD859193FF81917F018823A7
:1048900009F4ACC1853239F493FD859193FF819180
:1048A0007F01853229F4B60190E00E942626E7CFE9
:1048B000512C312C20E02032A0F48B3269F030F4FE
:1048C000803259F0833269F420612CC08D3239F086
:1048D000803339F4216026C02260246023C0286020
:1048E00021C027FD27C030ED380F3A3078F426FF7D
:1048F00006C0FAE05F9E300D1124532E13C08AE0EB
:10490000389E300D1124332E20620CC08E3221F4DB
:1049100026FD6CC1206406C08C3611F4206802C0EC
:10492000883641F4F70193FD859193FF81917F01D2
:104930008111C1CF982F9F7D9554933028F40C5F3F
:104940001F4F9FE399830DC0833631F0833771F099
:10495000833509F05BC022C0F801808189830E5F36
:104960001F4F44244394512C540115C03801F2E0E8
:104970006F0E711CF801A080B18026FF03C0652D69
:1049800070E002C06FEF7FEFC5012C870E940B26FD
:104990002C0183012C852F77222E17C03801F2E0DD
:1049A0006F0E711CF801A080B18026FF03C0652D39
:1049B00070E002C06FEF7FEFC5012C870E940026D8
:1049C0002C012C852068222E830123FC1BC0832D03
:1049D00090E048165906B0F4B60180E290E00E94DB
:1049E00026263A94F4CFF50127FC859127FE819184
:1049F0005F01B60190E00E94262631103A94F1E062
:104A00004F1A51084114510471F7E6C0843611F071
:104A1000893639F5F80127FF07C0608171818281ED
:104A200093810C5F1F4F08C060817181072E000CBD
:104A3000880B990B0E5F1F4F2F76722E97FF09C0C0
:104A400090958095709561957F4F8F4F9F4F20680F
:104A5000722E2AE030E0A4010E945626A82EA81843
:104A600044C0853729F42F7EB22E2AE030E025C0DD
:104A7000F22FF97FBF2E8F36C1F018F4883579F008
:104A8000B5C0803719F0883721F0B0C02F2F2061D2
:104A9000B22EB4FE0DC08B2D8460B82E09C024FF49
:104AA0000AC09F2F9660B92E06C028E030E005C0EE
:104AB00020E130E002C020E132E0F801B7FE07C09B
:104AC00060817181828193810C5F1F4F06C060817C
:104AD000718180E090E00E5F1F4FA4010E94562676
:104AE000A82EA818FB2DFF777F2E76FE0BC0372D42
:104AF0003E7FA51450F474FE0AC072FC08C0372D26
:104B00003E7E05C0BA2C372D03C0BA2C01C0B52C8F
:104B100034FF0DC0FE01EA0DF11D8081803311F4D8
:104B2000397E09C032FF06C0B394B39404C0832F0A
:104B3000867809F0B39433FD13C030FF06C0B31478
:104B400098F43A0C532C5B1810C0B31470F4B601EF
:104B500080E290E03C870E942626B3943C85F5CF06
:104B6000B31418F43B1802C05A2C312C34FF12C075
:104B7000B60180E390E03C870E9426263C8532FF08
:104B800017C031FD03C088E790E002C088E590E0DF
:104B9000B6010CC0832F867859F031FF02C08BE23A
:104BA00001C080E237FD8DE2B60190E00E9426262A
:104BB000A51438F4B60180E390E00E9426265A94AA
:104BC000F7CFAA94F401EA0DF11D8081B60190E0BF
:104BD0000E942626A110F5CF332009F450CEB6014D
:104BE00080E290E00E9426263A94F6CFF601868174
:104BF000978102C08FEF9FEF2C96E2E10C94D026B4
:104C0000FC010590615070400110D8F78095909597
:104C10008E0F9F1F0895FC0161507040019001109C
:104C2000D8F7809590958E0F9F1F0895DC01FC01A9
:104C3000672F71917723E1F7329704C07C916D93D0
:104C400070836291AE17BF07C8F308950F931F9347
:104C5000CF93DF93182F092FEB018B8181FD03C0C8
:104C60008FEF9FEF1EC082FF0FC02E813F818C818E
:104C70009D812817390774F4E881F981CF010196E5
:104C800099838883108306C0E885F985812F09956B
:104C9000892B31F78E819F8101969F838E83812F8F
:104CA000902FDF91CF911F910F910895FA01AA27BC
:104CB000283051F1203181F1E8946F936E7F6E5F5F
:104CC0007F4F8F4F9F4FAF4FB1E03ED0B4E03CD00D
:104CD000670F781F891F9A1FA11D680F791F8A1FF0
:104CE000911DA11D6A0F711D811D911DA11D20D057
:104CF00009F468943F912AE0269F11243019305D11
:104D00003193DEF6CF010895462F4770405D419301
:104D1000B3E00FD0C9F7F6CF462F4F70405D4A334E
:104D200018F0495D31FD4052419302D0A9F7EACF16
:104D3000B4E0A6959795879577956795BA95C9F745
:104D400000976105710508959B01AC010A2E069438
:104D50005795479537952795BA95C9F7620F731FF1
:104D6000841F951FA01D08952F923F924F925F922E
:104D70006F927F928F929F92AF92BF92CF92DF926B
:104D8000EF92FF920F931F93CF93DF93CDB7DEB7D0
:104D9000CA1BDB0B0FB6F894DEBF0FBECDBF099464
:104DA0002A88398848885F846E847D848C849B84BB
:104DB000AA84B984C884DF80EE80FD800C811B81C9
:104DC000AA81B981CE0FD11D0FB6F894DEBF0FBEF8
:0A4DD000CDBFED010895F894FFCF68
:104DDA0000000002000000001B1C00000000F000A0
:104DEA004001F000400100000002000000001B1C0E
:104DFA00000000006D6F6465202D2000636F6E73E4
:104E0A0074616E7420766F6C746167650073657483
:104E1A000030302E3030760061637475616C0A00A0
:104E2A0030302E30300030302E3030610061637403
:044E3A0075616C0032
:00000001FF
